:020000040800F2
:2000000018E1022099020008912700084D2700088D27000891080008452900080000000013
:200020000000000000000000000000009527000895080008000000009327000897270008CF
:20004000B3020008B3020008B3020008B3020008B3020008B3020008B3020008B3020008B8
:20006000B3020008B3020008B3020008B3020008B3020008B3020008B3020008B302000898
:20008000B3020008B3020008B3020008B3020008B3020008B3020008B3020008B302000878
:2000A000B3020008B3020008B3020008B3020008B30200080928000835280008B302000834
:2000C000B3020008B3020008B3020008B3020008B3020008B3020008B3020008B302000838
:2000E000B3020008B3020008B3020008B3020008B3020008B3020008B3020008B302000818
:20010000B3020008B3020008B3020008B3020008B3020008B3020008B3020008B3020008F7
:20012000B3020008B3020008B3020008B3020008B3020008B3020008B3020008B3020008D7
:20014000B3020008B3020008B3020008B3020008B3020008B3020008B3020008B3020008B7
:20016000B3020008B3020008B3020008B3020008B3020008B3020008B30200080000000054
:20018000B3020008B3020008B3020008B3020008B3020008B3020008B3020008B302000877
:2001A000B3020008B3020008B302000800F002F800F062F80AA090E8000C82448344AAF17E
:2001C0000107DA4501D100F057F8AFF2090EBAE80F0013F0010F18BFFB1A43F001031847E9
:2001E00094480000B44800000A444FF0000C10F8013B13F0070408BF10F8014B1D1108BF2C
:2002000010F8015B641E05D010F8016B641E01F8016BF9D113F0080F1EBF10F8014BAD1CEA
:200220000C1B09D16D1E58BF01F801CBFAD505E014F8016B01F8016B6D1EF9D59142D6D3F0
:20024000704700000023002400250026103A28BF78C1FBD8520728BF30C148BF0B607047BE
:200260001FB504F038FB9DE8030000F0AFF900F07BF91FBD10B510BD00F013FA1146FFF747
:20028000EFFF04F08FFA00F031FA03B4FFF7F2FF03BC00F095FA000009488047094800474C
:2002A000FEE7FEE7FEE7FEE7FEE7FEE7FEE7FEE7FEE7FEE704480549054A064B704700005B
:2002C000A5270008AD010008185D022018E1022018DD022018DD022070B5064600F056F904
:2002E000056806F10B0020F00704B4429CBF002070BD2B466A68BAB11068A04210D304F1F6
:20030000080188423CBF5068586007D35168101941601168091B016058601460101D70BDBE
:2003200013465268002AE7D12146284600F03AF90028DED170BD70B50446051F00F026F92A
:200340000068002C14BF446870BD002C18BFAC423CBF20466468F8D301680A18AA4218BF26
:20036000456003D12A6805461144016028684119A1421CBF6C6070BD616869602168084469
:20038000286070BD53EA020C00F069802DE9F04B4FF00006002B1FBFB3FA83F503FA05F4CA
:2003A00024FA05F65E4012BF1643B2FA82F502FA05F4C5F120051EBF22FA05FC44EA0C0431
:2003C000203556EA044C4FEA144418BF641C4FF000084FF00009904271EB030C39D300294F
:2003E00019BFB1FA81F701FA07F6B0FA80F700FA07F6C7F120071EBF20FA07FC46EA0C06D7
:200400002037B6FBF4FCA7EB0507103F07F01F0BCBF120060CFA0BFB2CFA06F644BFB346CA
:200420000026202FA4BF5E464FF0000B5BEA060C08BF4FF0010B19EB0B09ABFB027C48EB1E
:200440000608C01B06FB02CC0BFB03CC71EB0C01C1E70B46024641464846BDE8F08B13B568
:200460004FF000004FF00001AFF30080BDE81C407047032A40F2308010F0030C00F0158080
:2004800011F8013BBCF1020F624498BF11F801CB00F8013B38BF11F8013BA2F1040298BF27
:2004A00000F801CB38BF00F8013B11F0030300F02580083AC0F0088051F8043B083A51F824
:2004C00004CBA0E80810F5E7121D5CBF51F8043B40F8043BAFF30080D20724BF11F8013B65
:2004E00011F801CB48BF11F8012B24BF00F8013B00F801CB48BF00F8012B704710B5203A0F
:20050000C0F00B80B1E81850203AA0E81850B1E81850A0E81850BFF4F5AF5FEA027C24BF63
:20052000B1E81850A0E8185044BF18C918C0BDE810405FEA827C24BF51F8043B40F8043BF0
:2005400008BF7047D20728BF31F8023B48BF11F8012B28BF20F8023B48BF00F8012B70479D
:20056000704770477047000070B5064C7C44064D7D4403E0206820448047241DAC42F9D17C
:2005800070BD0000244500003045000000487047C05C022000487047EC5C0220704770473C
:2005A0007047704738B504460A4600206946AFF30080002808BF38BD02460099204600F03A
:2005C00041F8012038BD012000F056B8F8B5AFF30080054600200C46102000BF0646A81925
:2005E000A0420DD9324669460020AFF30080070008BF00F041F80098A04218BF0546C4195A
:20060000FFF7C4FF05600746F01D20F007004619284600F00AF8B44208BFF8BDA21B3146E6
:200620003868BDE8F84000F00DB800210160C0E9011070471020704700F025B800487047E2
:20064000B85C0220034640688C46002818BF88423CBF03464068F8D318681844884207D0A4
:200660000CF1030020F00700001D411A521A0146081D0A60FFF75FBE10B500F051F8BDE8F3
:20068000104000F047B810B500F075F8016919B100220261884701E08068804700F02FF8CA
:2006A00070477546FFF7CAFFAE4605006946534620F00700854618B020B5FFF7FBFDBDE8B6
:2006C00020404FF000064FF000074FF000084FF0000B21F00701AC46ACE8C009ACE8C009D9
:2006E000ACE8C009ACE8C0098D46704710B50446AFF300802046BDE81040FFF7C6BD10B5EC
:20070000002000F080F8FFF7B5FDBDE81040012000F056B8002801D000F052B870470000EB
:2007200010B5012805D0002103A000F053F8012010BD09A1F8E7000053494752544D454D18
:200740003A204F7574206F662068656170206D656D6F7279000000003A2048656170206D36
:20076000656D6F727920636F727275707465640010B5FFF7C4FF70B500F028F804680546EB
:20078000A4B92020FFF7A8FD040011D0094900202C60C4E900010849A16020732061606169
:2007A0000649A06109B100F035F8E061204670BDFFF7A5FF00000000710700080000000024
:2007C00001491820ABBEFEE72600020000487047F45C022070B505460C460A2000E06D1C5B
:2007E00000F036F835B128780028F8D102E0641C00F02EF814B120780028F8D1BDE8704049
:200800000A2000F025B810B500F02AF8BDE81040FFF780BF10B58820FFF75EFD002801D029
:200820000021017010BD802902D808B1017809B100207047012100F8081B704718B100F165
:200840000802914201D00020704700210170704708B569468DF800000320ABBE08BD000088
:2008600010B5002102A0FFF7B5FF012010BD0000534947414252543A2041626E6F726D6132
:200880006C207465726D696E6174696F6E00000000BFFEE77047000010B5002201B909E03D
:2008A000012901D10A0205E0022901D10A0201E04FF440720B2800D9001D0E4B1B6823F450
:2008C00040730C4C236023461B681343236023461B6823F0F803236023461B68022444EA08
:2008E000C0042343034C236023461B6843F48033236010BD103C02401C48006800F4007018
:20090000B0B11A48006820F400701849086000BF0846006840F4006008600846006820F424
:200920000060086000BF0846006840F4007008600E48006800F48060B0B10C48006820F4AB
:2009400080600A49086000BF0846006840F4805008600846006820F48050086000BF08460C
:20096000006840F48060086070470000003C024070B50446002500201449C86100F0BEFB7B
:20098000054609E0601C38B124B100F0B7FB401BA04201D9032070BD0D48006800F480307F
:2009A0000028EFD10A48006800F0010010B10120074908600648006800F4F97018B102F03C
:2009C00055FB0120E7E70020E5E70000000200200C3C024030B503460C46002100BF18794F
:2009E000012801D1022030BD0120187100BF022058711868806840F001001D68A860002152
:200A000004E054F821001D682860491C9142F8D30120587100BF0020187100BF186800687C
:200A2000E1E710B504460CB9012010BD607920B900202071204600F006F802206071012061
:200A400060710020F1E7704730B502460B4602F1180000EB031100245068B0F5403F02D0BC
:200A6000506800B100BF00BF92F83800012801D1022030BD012082F8380000BF022082F895
:200A8000390048680A2802D04868092809D10D89486840EA0540CD6805F07F4540EA0504D8
:200AA00006E00D89486840EA05400D7B40EA0564ABB91068406A194D284020431568686282
:200AC00008681568A86148680A2802D0486809281AD1C86820F07F401568A86214E01068AE
:200AE000C0690E4D284020431568E86108681568286148680A2802D04868092804D1C868D1
:200B000020F07F4015682862012082F8390000BF002082F8380000BF00BFAAE7F0FFFC00A0
:200B200010B504460CB9012010BD94F8390028B9002084F83800204600F022F8022084F86B
:200B400039002068006820F4403061680843216808602068406B20F00700A16808432168BC
:200B600048632068006C6FF30D00E1680843216808640020E063012084F839000020D3E7CB
:200B80007047F8B504460D460026002000902068006800F00100002843D000F0AFFA06467D
:200BA00039E0206840680090009800F02100E0B1009800F0200018B1E06B40F00200E063F1
:200BC000009800F0010018B1E06B40F00100E063212021688860042084F8390000BF00209A
:200BE00084F8380000BF0120F8BD681C98B125B100F084FA801BA8420DD9E06B40F0200095
:200C0000E063032084F8390000BF002084F8380000BF0320E8E72068406800F0020000282B
:200C2000BFD02068C06900F0200028B92068406A00F0200000284BD000F060FA064641E047
:200C4000206840680090009800F0290020B3009800F0080018B1E06B40F00400E06300989D
:200C600000F0200018B1E06B40F00200E063009800F0010018B1E06B40F00100E063292081
:200C800021688860042084F8390000BF002084F8380000BF0120A7E7681C98B125B100F076
:200CA0002DFA801BA8420DD9E06B40F02000E063032084F8390000BF002084F8380000BF9A
:200CC000032091E72068406800F010000028B7D0122021688860012084F8390000BF002042
:200CE00084F8380000BF00BF7EE72DE9F84304460D4616461F46DDF8208000BF94F83800B6
:200D0000012802D10220BDE8F883012084F8380000BF022084F839003B463246294620465C
:200D2000CDF8008001F0B9FF2068006840F00100216808600020E6E72DE9F04104460E46E1
:200D40000127002500BF2648007E012802D10220BDE8F08101202249087600BF4CF25030E0
:200D6000FFF706FE0746002F32D1401E30602068012810D1207C616802F08AF84CF25030E3
:200D8000FFF7F6FD07461748006848F204018843144908601AE0A56812E0217C2846FFF78D
:200DA0007BFD4CF25030FFF7E3FD07460D48006820F0FA000B4908600FB1356005E06D1C94
:200DC000D4E902100844A842E7D800BFFFF794FD00BF00200249087600BF3846B8E7000085
:200DE00000020020103C02400348006840F000400149086000207047103C02402DE9F041C2
:200E000006460F4614461D464FF0010800BF1F48007E012802D10220BDE8F08101201B49CF
:200E2000087600BF4CF25030FFF7A2FD8046B8F1000F23D126B9E1B2384602F0F1F812E0F3
:200E4000012E04D1A1B2384602F06AF90BE0022E04D12146384602F0F5F804E022462B46F7
:200E6000384602F071F94CF25030FFF781FD80460748006820F001000549086000BF002043
:200E80000249087600BF4046C6E7000000020020103C024000200949096801F0004159B1C8
:200EA0000749064A0C3A1160064911600349096801F0004101B1012070470000103C024014
:200EC00023016745AB89EFCDF8B502460B460025002400200021E5E0012606FA01F51E681A
:200EE00006EA0504AC4272D15E68022E02D05E68122E13D1CF0802F1200656F827004E075C
:200F0000F70E0F26BE40B0434F07FF0E1E69BE403043CF0802F1200646F8270010684F002F
:200F20000326BE40B0431E7906F003064F00BE40304310605E68012E08D05E68022E05D039
:200F40005E68112E02D05E68122E13D190684F000326BE40B0434F00DE68BE403043906079
:200F6000506801268E40B0431E79C6F300168E4030435060D0684F000326BE40B0434F008A
:200F80009E68BE403043D0605E6806F08056B6F1805FA8D100BF00260096444E366846F434
:200FA0008046424F3E603E46366806F48046009600BF3F4E8F0856F827008E07370F0F265C
:200FC000BE40B0433B4EB24202D100262EE068E0394EB24201D1012628E0384EB24201D18C
:200FE000022623E0364EB24201D103261EE0354EB24201D1042619E0334EB24201D1052677
:2010000014E0324EB24201D106260FE0304EB24201D107260AE02F4EB24201D1082605E0CA
:201020002D4EB24201D1092600E00A268F073F0FBE4030431E4E8F0846F82700274E306866
:20104000A0435E6806F48036B6F5803F00D12043224E3060361D3068A0435E6806F40036D5
:20106000B6F5003F00D120431C4E361D3060361D3068A0435E6806F48016B6F5801F00D1C6
:201080002043164E08363060361D3068A0435E6806F40016B6F5001F00D120430F4E0C367A
:2010A0003060491C1029FFF417AFF8BD443802400838014000000240000402400008024083
:2010C000000C0240001002400014024000180240001C02400020024000240240003C01401D
:2010E000024613690B400BB1012000E0002070470AB1816101E00B04836170470148006874
:2011000070470000000000200348006803490978084401490860704700000020080000207B
:2011200010B50D48006840F400700B4908600846006840F4806008600846006840F48070C1
:201140000860032000F0BCF90F2000F007F800F06AF9002010BD0000003C024070B5044614
:201160000E4800784FF47A71B1FBF0F00C490968B1FBF0F5284601F075FA08B1012070BDBB
:20118000102C07D200222146501E00F05AF90548046001E00120F2E70020F0E70800002055
:2011A0000C00002004000020F0B50446154600260022002700BF94F8A000012801D102201E
:2011C000F0BD012084F8A00000BF022084F8A100002237E003EB830000EBC30C04F1380096
:2011E00000EB8C000069062813D108784FF0100C0CFB022C40EA0C60B1F800C00CF47F4C23
:2012000040EA0C00D1F800C00CF47F0C40EA0C060EE0087840EA0260B1F800C00CF47F4C1A
:2012200040EA0C00D1F800C00CF47F0C40EA0C060F1D3946206884304FF0800C0CFB03006C
:201240000664521CAA42C5D3012084F8A10000BF002084F8A00000BF00BFB1E770B5044674
:201260000E46154600BF94F8A000012801D1022070BD012084F8A00000BF022084F8A1004F
:2012800005EB850101EBC50204F1380101EB820034223146FFF732F92A463146204601F05D
:2012A000F3FB01202168486284F8A10000BF002084F8A00000BF00BFDAE710B5024600BFC9
:2012C00092F8A000012801D1022010BD012082F8A00000BF022082F8A10010688430CB01CB
:2012E000C05840F0100310688430CC01035101201368586282F8A10000BF002082F8A000DC
:2013000000BF00BFE1E7000070B50446002500260CB9012070BD94F8A10028B9002084F810
:20132000A000204600F07EF8022084F8A1002068806920F0704021688861D4E90101084355
:20134000E16808432169084321688969084321688861206880683249084021688860A08A1E
:20136000050420688068A16929430843216888602068C0682A4908402168C860A08B050472
:201380002068C068216A294308432168C860206800692349084021680861A08C0504206856
:2013A0000069A16A2943084321680861206840691B49084021684861A08D0504206840699A
:2013C000216B294308432168486194F83500050294F8360006042068C06A00F07F4021681A
:2013E000C86246EA050094F8341008432168C96A08432168C8622068406B40F006002168C7
:2014000048632068806940F00100216888610020C4F8A400012084F8A10000207AE70000CE
:2014200000F800F07047704700BF00F01F02012191404209920002F1E022C2F8001100BF37
:2014400070472DE9F05F80460D461646002701F091FE074639462A46334601F00700C0F1F6
:20146000070ABAF1040F02D94FF0040A01E0C0F1070AD14600F1040ABAF1070F02D24FF0E8
:20148000000A01E0A0F1030AD4464FF0010A0AFA09FAAAF1010A0AEA020A0AFA0CFA4FF069
:2014A000010B0BFA0CFBABF1010B0BEA030B4AEA0B042146404601F015FDBDE8F09F000002
:2014C00000BF00F00702064B19684FF6FF031940044B0B4343EA0221014B196000BF7047BA
:2014E0000CED00E00000FA0538B5002400BF002000901D48006840F080501B4908600846AD
:20150000006800F08050009000BF012017490864FFF7F4FD044607E0FFF7F0FD001BB0F5AC
:201520007A7F01D9032038BD1148406800F48030B0F5803FF0D101200C494864FFF7DEFD03
:20154000044607E0FFF7DAFD001BB0F57A7F01D90320E8E70648406800F40030B0F5003F0A
:20156000F0D10020DFE700004038024000000E4200700040F8B5044600250026207800F040
:20158000010020B9207800F00200022852D10020A8498866FFF7B2FD054606E0FFF7AEFD24
:2015A000401B022801D90320F8BDA3480068C0F3C0600028F2D1207800F0010038B16068A9
:2015C0008101207A41EA00709B4984310860207800F00200022819D1974884300068C0F307
:2015E000027660688101207B41EA006040EA067091498431086090488C30006820F01F0041
:20160000E169491E08438C498C310860012089498866FFF773FD054606E0FFF76FFD401B9F
:20162000022801D90320BFE783480068C0F3C0600028F2D0207800F00400042804D02078C9
:2016400000F00800082863D100207A490867FFF755FD054606E0FFF751FD401B022801D9C0
:201660000320A1E774480068C0F340700028F2D1207800F00400042819D16F4888300068D4
:20168000C0F3027620698101207D41EA006040EA0670694988310860081D006820F4F8518F
:2016A000206A401E41EA002063498C310860207800F00800082817D15F4888300068C0F304
:2016C00003662069800140EA0661207E41EA0070594988310860081D006820F44030616A2E
:2016E000084355498C310860012052490867FFF705FD054606E0FFF701FD401B022801D935
:20170000032051E74C480068C0F340700028F2D0207800F0200020287ED100BF0020009077
:2017200045484030006840F080504349403108600846006800F08050009000BF3F4800682B
:2017400040F480703D490860FFF7D8FC054606E0FFF7D4FC401B022801D9032024E73748AA
:20176000006800F480700028F2D033487030006800F440764EB3208D00F44070B04224D0CE
:201780002D487030006820F4407601202C49086000200860284870300660006800F00100AD
:2017A00098B1FFF7ABFC054608E0FFF7A7FC401B41F28831884201D90320F5E61E48703088
:2017C0000068C0F340000028EFD000BF208D00F44070B0F5407F0CD117480830006820F463
:2017E000F810184AA16A1140084313490831086007E011480830006820F4F8100E4908314F
:2018000008600D4870300068218DC1F30B01084309497031086000E000E000BF207800F0E8
:201820001000102803D194F82C00074908600020BAE60000000047420038024000700040A9
:20184000400E4742FFFCFF0FE011474270B504460D460CB9012070BD5848006800F00F0052
:20186000A84209D255490D700846006800F00F00A84201D00120EEE7207800F0020002286E
:201880001DD1207800F00400042805D14C48006840F4E0504A490860207800F008000828B1
:2018A00005D14748006840F46040454908604448006820F0F000A1680843414908602078BF
:2018C00000F00100A8B36068012807D13C4808380068C0F34040B8B90120BCE7606802286D
:2018E00002D06068032807D1354808380068C0F3406048B90120AEE7314808380068C0F348
:20190000400008B90120A6E72D48006820F00300616808432A490860FFF7F0FB064609E023
:20192000FFF7ECFB801B41F28831884202D9032091E707E02248006800F00C006168B0EBEA
:20194000810FEDD11D48006800F00F00A84209D91A490D700846006800F00F00A84201D051
:20196000012078E7207800F00400042807D11448006820F4E050E168084311490860207861
:2019800000F00800082808D10D48006820F46040216940EAC1000A49086000F01DF808494F
:2019A0000968C1F30311074A515CC840064908600F20FFF7D3FB00204DE70000003C02406C
:2019C00008380240E04800080C00002001480068704700000C0000202DE9F04700240025FF
:2019E0000026A1462548006800F00C0020B1042805D008283AD105E0DFF8849039E0DFF83C
:201A0000849036E01D48001F006800F03F041B48001F006800F4800078B11A481749091F0C
:201A20000968C1F38811A0FB01700146224600233846FEF7A7FC05460EE011480F49091FE2
:201A40000968C1F38811A0FB01700146224600233846FEF797FC05460848001F0068C0F30F
:201A60000140401C4600B5FBF6F902E0DFF8109000BF00BF4846BDE8F087000008380240E1
:201A80000024F40000127A00F8B504460CB90120F8BD207800F00100002874D0F948006872
:201AA00000F00C0004280DD0F648006800F00C00082813D1F348001F006800F48000B0F590
:201AC000800F0BD1EF4808380068C0F34040002859D06068002856D10120D9E700BF6068B9
:201AE000B0F5803F08D1E7480838006840F48030E449083908601EE06068B0F5A02F0DD100
:201B0000E0480838006840F48020DE49083908600846006840F4803008600CE0D948083802
:201B2000006820F48030D749083908600846006820F48020086000BF606890B1FFF7DEFA48
:201B4000054606E0FFF7DAFA401B642801D903209EE7CC4808380068C0F340400028F1D049
:201B600011E0FFF7CBFA054606E0FFF7C7FA401B642801D903208BE7C24808380068C0F316
:201B800040400028F1D1207800F0020002285FD1BC48006800F00C0058B1BA48006800F02C
:201BA0000C0008281CD1B748001F006800F48000B0B9B44808380068C0F3400020B1E068E9
:201BC000012801D0012063E7AE480838006820F0F800216940EAC100AA490839086037E0D2
:201BE000E06800B30120A8490860FFF787FA054606E0FFF783FA401B022801D9032047E7A5
:201C0000A04808380068C0F340000028F1D09D480838006820F0F800216940EAC10099496C
:201C20000839086014E0002097490860FFF766FA054606E0FFF762FA401B022801D9032044
:201C400026E7904808380068C0F340000028F1D1207800F0080008282CD16069A8B101201A
:201C60008A490860FFF74AFA054606E0FFF746FA401B022801D903200AE782486C30006847
:201C8000C0F340000028F1D014E000207F490860FFF734FA054606E0FFF730FA401B02282A
:201CA00001D90320F4E677486C300068C0F340000028F1D1207800F0040004286FD100268F
:201CC00070483830006800F0805088B900BF002000906C483830006840F08050694938316D
:201CE00008600846006800F08050009000BF01266748006800F48070B0B96548006840F4E3
:201D0000807063490860FFF7F9F9054606E0FFF7F5F9401B022801D90320B9E65C48006895
:201D200000F480700028F2D000BFA068012808D154486830006840F00100524968310860A3
:201D40001DE0A06805280DD14E486830006840F004004C49683108600846006840F001002C
:201D600008600CE047486830006820F001004549683108600846006820F00400086000BFEF
:201D8000A068A8B1FFF7BAF9054609E0FFF7B6F9401B41F28831884202D9032078E626E0ED
:201DA000384868300068C0F340000028EED013E0FFF7A4F9054608E0FFF7A0F9401B41F2F4
:201DC0008831884201D9032062E62E4868300068C0F340000028EFD1012E07D1294838300A
:201DE000006820F0805027493831086000BFA069B8B32448006800F00C0008285FD0A069EF
:201E0000022847D1002020490866FFF777F9054606E0FFF773F9401B022801D9032037E6F1
:201E2000184808380068C0F340600028F1D1D4E907010843616A40EA81110122A06AC2EBEC
:201E4000500041EA00412C20005D41EA00600D49091F086001200C490866FFF74FF905463F
:201E600007E02EE0FFF74AF9401B022801D903200EE6044808380068C0F340600028F1D08E
:201E80001FE000000838024000004742800E47420070004000200C490866FFF72FF9054625
:201EA00006E0FFF72BF9401B022801D90320EFE506480068C0F340600028F2D101E00120D6
:201EC000E6E50020E4E50000000047420038024010B504460CB9012010BD606A00B900BF47
:201EE000A06AB0F5005F00D100BF94F8510028B9002084F85000204600F03AF8022084F874
:201F000051002068006820F0400021680860D4E901010843E16808432169084361690843B7
:201F2000218B01F400710843E1690843216A0843A16A0843216808600421A06901EA104029
:201F4000616A084321684860A06AB0F5005F02D12168E06A08612068C06920F4006021686F
:201F6000C86100206065012084F851000020B3E770472DE9FC4704460D4617461E4600201D
:201F80000190804681466068B0F5827F0DD1A06858B9042084F851003B462A462946204607
:201FA000009600F0E6F9BDE8FC8700BF94F85000012801D10220F6E7012084F8500000BF53
:201FC000FFF79CF8804694F85100012802D04FF00209D5E005B117B94FF00109D0E0042037
:201FE00084F8510000206065A563A787E7872063A086E08620646064A06AB0F5005F11D144
:020000040800F2
:2020000000BF206800684DF6FF710840216808602068006840F400502168086000BFE08F92
:20202000401EE087A068B0F5004F05D12068006820F48040216808602068006800F0400034
:20204000402805D02068006840F0400021680860E068E8B918E02068806800F0010038B1C7
:202060002068007B28706D1CE08F401EE0870BE03EB1701C40B1FFF741F8A0EB0800B042FD
:2020800002D34FF003097BE0E08F0028E3D11CE018E02068806800F0010038B12068C0688C
:2020A0002880AD1CE08F401EE0870BE03EB1701C40B1FFF723F8A0EB0800B04202D34FF07A
:2020C00003095DE0E08F0028E3D1A06AB0F5005F31D12068006840F48050216808603346FE
:2020E000012211462046CDF8008001F04BF810B14FF0030944E0E068B0F5006F03D120689F
:20210000C068288002E02068007B28703346012211462046CDF8008001F034F830B1606D09
:2021200040F0020060654FF0030929E02068C06880B2019000BF6068B0F5827F0DD1A068CE
:20214000B0F5004F03D0A068B0F5806F05D12068006820F04000216808602068806800F0B5
:202160001000102807D1606D40F0020060654FF6EF7021688860606D08B14FF0010900BFD8
:20218000012084F8510000BF002084F8500000BF484608E72DE9F84304460D4617461E46BB
:2021A0004FF00008C14600BF94F85000012802D10220BDE8F883012084F8500000BFFEF757
:2021C0009DFF804694F85100012802D04FF00209C5E005B117B94FF00109C0E0032084F8C8
:2021E0005100002060652563A786E786A063A087E08760642064A068B0F5004F05D1206854
:20220000006840F4804021680860A06AB0F5005F0ED100BF206800684DF6FF710840216851
:2022200008602068006840F400502168086000BF2068006800F04000402805D020680068C5
:2022400040F0400021680860E068B0F5006F2AD1606810B1E08E012806D128882168C8606E
:20226000AD1CE08E401EE08619E02068806800F00200022807D128882168C860AD1CE08E6E
:20228000401EE0860BE03EB1701C40B1FEF736FFA0EB0800B04202D34FF003095FE0E08EA7
:2022A0000028E2D129E0606810B1E08E012806D12878216808736D1CE08E401EE08619E0EB
:2022C0002068806800F00200022807D12878216808736D1CE08E401EE0860BE03EB1701CD5
:2022E00040B1FEF70BFFA0EB0800B04202D34FF0030934E0E08E0028E2D13346012202212D
:202300002046CDF8008000F03DFF10B14FF0030925E042463146204600F0F8FD20B14FF07B
:202320000109202060651AE0A06848B900BF002000902068C068009020688068009000BF1D
:20234000A06AB0F5005F05D12068006840F4805021680860606D08B14FF0010900BF012005
:2023600084F8510000BF002084F8500000BF48461FE72DE9FF5F04460D4616461F46DDF8EB
:2023800038804FF0000A00200390029081464FF0010B019000BF94F85000012803D102209A
:2023A00004B0BDE8F09F012084F8500000BFFEF7A5FE814694F851A060680390BAF1010F97
:2023C0000BD00398B0F5827F04D1A06810B9BAF1040F02D00220019025E10DB106B117B9AD
:2023E000012001901FE194F85100012802D1052084F8510000206065A663E787A78725634E
:20240000E786A78620646064A06AB0F5005F0ED100BF206800684DF6FF7108402168086052
:202420002068006840F400502168086000BF2068006800F04000402805D02068006840F0FB
:20244000400021680860E068B0F5006F4FD1606810B1E08E012806D128882168C860AD1CAE
:20246000E08E401EE0863BE0BBF1000F1CD0E08ED0B12068806800F00200022814D1288858
:202480002168C860AD1CE08E401EE0864FF0000BE08E48B9A06AB0F5005F05D12068006803
:2024A00040F4805021680860E08F68B12068806800F0010040B12068C0683080B61CE08FAC
:2024C000401EE0874FF0010B08F1010040B1FEF715FEA0EB0900404502D303200190A2E0D5
:2024E000E08E0028C0D1E08F0028BDD14EE0606810B1E08E012806D12878216808736D1C3E
:20250000E08E401EE0863BE0BBF1000F1CD0E08ED0B12068806800F00200022814D115F85A
:20252000010B21680873E08E401EE0864FF0000BE08E48B9A06AB0F5005F05D120680068CC
:2025400040F4805021680860E08F68B12068806800F0010040B12068C06806F8010BE08F83
:20256000401EE0874FF0010B08F1010040B1FEF7C5FDA0EB0900404502D30320019052E0D5
:20258000E08E0028C0D1E08F0028BDD1A06AB0F5005F14D14346012211462046CDF800903E
:2025A00000F0F0FD30B1606D40F0020060650320019038E02068C06880B2029000BF206812
:2025C000806800F01000102809D1606D40F0020060654FF6EF7021688860012001904346ED
:2025E000012202212046CDF8009000F0CBFD10B10320019017E04A464146204600F086FCC7
:2026000020B101200190202060650CE0A06848B900BF002000902068C0680090206880681E
:20262000009000BF00BF012084F8510000BF002084F8500000BF0198B2E6042808D14FF0BF
:20264000E021096941F004014FF0E022116107E04FF0E021096921F004014FF0E0221161BC
:202660007047704770B504462546681EB0F1807F01D301200FE0681E4FF0E02148610F2169
:202680004FF0FF3000F02EFC00204FF0E021886107200861002070BD10B5FFF7E2FF10BD23
:2026A00010B504460CB9012010BD94F8390028B9002084F83800204600F00CF8022084F8E6
:2026C0003900211D206800F0CBF8012084F839000020E9E770470146022081F83900086840
:2026E000006840F001000A681060012081F839000020704701460868C06840F001000A6833
:20270000D0600868006840F001000A6810600020704701460868C06820F001000A68D06035
:2027200000BF0868006A41F21112104050B90868006A9210104028B90868006820F00100BB
:202740000A68106000BF002070470000094E3068094E3168094E3268094E3468094E35684A
:20276000094E336805E000BF00BF00BF00BF00BF00BFF8E7685C0220905C0220A000002075
:20278000A4000020A8000020AC00002000BFFEE770477047704710B5FEF7B6FCFFF77CFF3B
:2027A00010BD00001448006840F47000124908601248006840F001001049086000200F49F5
:2027C000083108600D4800680D4908400B4908600C48091D0860081F006820F48020091FF4
:2027E0000860002005490C3108604FF000600249803908607047000088ED00E000380240CD
:20280000FFFFF6FE1030002410B50948006800F0010058B10648001F006800F0010028B14B
:202820006FF001000249086001F0E4F810BD00001004004010B50948006800F0010058B11F
:202840000648001F006800F0010028B16FF001000249086001F096FC10BD0000100800401E
:20286000002202682C4B98420ED0B0F1804F0BD02A4B984208D02A4B984205D0294B9842B9
:2028800002D0294B984201D1012300E000231BB122F070024B681A431F4B984220D0B0F1EA
:2028A000804F1DD01D4B98421AD01D4B984217D01C4B984214D01C4B984211D01B4B984280
:2028C0000ED01B4B98420BD01A4B984208D01A4B984205D0194B984202D0194B984201D1B4
:2028E000012300E000231BB122F44072CB681A4302608B68C3620B688362074B984202D0BD
:20290000094B984201D1012300E000230BB10B6903630123436170470000014000040040F6
:2029200000080040000C00400004014000400140004401400048014000180040001C00407B
:202940000020004000BFFEE700B58DB0002000904FF4A070019000200290F0200390052073
:202960000490FF20059006904FF480600790052008900C4809904FF4A0700A90F0200B907D
:2029800000208DF8300000218DF831108DF83210002269460448FEF761FC08B100F0D2FECC
:2029A0000DB000BD28030020400200204FF0FF3100200AE0074A02EB001292688A4203D28C
:2029C000044A02EB00129168401C0228F2D30846704700002002002010B52DED028B82B081
:2029E0000446B0EE408A0E4814234FF49672214600900A2001F0F6F80A489FED0B0A28EE44
:202A0000000ABDEEC00A10EE102A1423214600900A2001F0CBF802B0BDEC028B10BD00003E
:202A200031010020470100200000964370B504460E4615461248B0F90400A0421CD14FF4CC
:202A40000071284601F04CFDB04215D10D4901EB44208A14294600F02BFC094800F060FE1C
:202A600020B14FF0FF300649888005E004488088401C00B20249888001200149887170BD95
:202A80007800002000000208F0B50023002400258E880768FF68C7F30B473E443304066864
:202AA0008436802707FB0266766806F47047066884364FF0800C0CFB026677600E6807689E
:202AC000FF68C7F30B473E44761C1E43076884370CFB02777E608E890768FF68C7F30A07CE
:202AE0003E44330406688436802707FB0266B66806F47047066884360CFB0266B7608E6871
:202B00000768FF68C7F30A073E44761C1E43076884370CFB0277BE6006688436802707FB06
:202B20000266366926F00707066884360CFB026637610F69066884360CFB0266376131263D
:202B4000765C33023226765C34040E7E350606688436802707FB0266B6690027066884369E
:202B60000CFB0266B76191F830601E4326432E43076884370CFB0277BE61066884368027E2
:202B800007FB0266766926F0FF07066884360CFB026677614F69066884360CFB026677613A
:202BA00006688436802707FB0266F76940F20776B743066884360CFB0266F761D1E90767BC
:202BC0003E43076884370CFB0277FE6106688436802707FB0266B66A0027066884360CFBBC
:202BE0000266B7624F6A066884360CFB0266B7620E690EB9042313E00E69012E01D10323F5
:202C00000EE00E69042E08D00E69022E05D00E69032E02D00E69072E01D1022300E00123A8
:202C200006688436802707FB0266F66A06F0E027066884364FF0800C0CFB0266F762D1E989
:202C40000076F61B5E43F71C0E8D5E4347EA0647066884360CFB0266F762066884368027C0
:202C600007FB0266366BF70AFF02066884360CFB02663763CF6A066884360CFB02663763AC
:202C800006688436D701F65946F00107066884364FEAC21C46F80C70F0BD2DE9F0470C4662
:202CA00016461F46DDF820C04FF000080025002100220023D0F80090D9F8449009F040494D
:202CC0004CEA074A49EA0A09D0F800A0CAF84490D0F80090C9F83C60D0F80490B9F5403FEB
:202CE0004ED104F07F4504F47F0104F47F42E3B2D0F80890B9F1000F06D142EA010949EADE
:202D0000050949EA030836E0D0F80890B9F1010F04D142EA010949EA03082CE0D0F8089082
:202D2000B9F1020F09D1C90C920ADB084FEA421949EAC12949EA03081DE0D0F80890B9F1B4
:202D4000030F0CD1ED0FC90CD20ADB084FEA421949EA812949EAC53949EA03080BE02D0FED
:202D6000090D120B1B094FEA021949EA012949EA053949EA0308D0F80090C9F8388003E0E8
:202D8000D0F80090C9F80C40BDE8F0872DE9F04138480188432000F0A7FE80F0010515B926
:202DA00001203549087034480078002835D000F0BDFE07469DB13148007880B13048006893
:202DC000381AB0F5FA7F0AD90121182001F066FA00202949087029490870294908602848B7
:202DE000006850B9C5B1264807600120234908700021182001F052FA0EE021480068381A6B
:202E0000322809D945B90221182001F047FA00201B4908601949087000BF1A480188432018
:202E200000F062FE064618480188432000F05CFE044626B11CB101201449087018E0134829
:202E4000007848B146B13CB90021162001F026FA00200E4908700BE00C48007840B13EB91F
:202E600034B10021172001F019FA002007490870BDE8F08190490008800100207A010020F6
:202E80007C0100208C4900088E49000881010020134A126822F44072114B1A60032906D1BF
:202EA0001A461268DB131A430D4B1A600EE0012906D10B4A126842F00402094B1A6005E072
:202EC000074A126842F40042054B1A60044A12684FF4803343EA00231A43014B1A607047FD
:202EE000103C024010B5002807DA0A07140E054A00F00F031B1FD45403E00A07130E024A2F
:202F0000135410BD18ED00E000E400E0F8B504460D4616462B46002280212046009600F00E
:202F200031F928B1606D40F0200060650320F8BD0020FCE710B59EB000BF002000903648D1
:202F4000006840F08050344908600846006800F08050009000BF00BF002000902F48006811
:202F600040F440402D4908600846006800F44040009000BF022012900120159010201690E6
:202F8000022018900021199110211A914FF4B4711B9102211C9104211D9112A8FEF774FDE9
:202FA00008B100F0CFFBFEF79FFA08B100F0CAFB0F200D9002200E9000200F904FF4A05024
:202FC00010904FF48050119005210DA8FEF73EFC08B100F0B7FB0820019064200590022143
:202FE000079108040A9001A8FEF7C4FA08B100F0A9FBFEF7EBFC4FF47A71B0FBF1F42046EA
:20300000FFF730FB0420FFF718FB00221146501EFEF717FA1EB010BD403802400070004070
:20302000074A126822F44072054B1A601A4612681A601A46126842F001021A60017070472E
:20304000103C0240084A126822F44072064B1A601A46126842F400721A601A46126842F07B
:2030600001021A6001607047103C02402A48006800F0100040B12948C06940F01000274918
:20308000C8611020244908602348006800F0200040B12248C06940F008002049C861202091
:2030A0001D4908601C48006800F0400040B11B48C06940F004001949C861402016490860E3
:2030C0001548006800F0800040B11448C06940F002001249C86180200F4908600E48006871
:2030E00000F4807048B10D48C06940F001000B49C8614FF48070084908600748006800F034
:20310000020040B10548C06940F020000349C86102200149086070470C3C0240000200204A
:20312000084A126822F44072064B1A601A46126842F480721A601A46126842F001021A602B
:2031400001807047103C024010B50949096821F44071074C21602146096841F44071216048
:203160002146096841F0010121600260436010BD103C024002480068C0F302207047000025
:203180000CED00E02DE9F04104460E4617461D46DDF818803FE0681CE0B32DB1FDF7AEFF8F
:2031A000A0EB0800A84236D32068406820F0E000216848606068B0F5827F0DD1A068B0F53F
:2031C000004F03D0A068B0F5806F05D12068006820F0400021680860A06AB0F5005F0ED13D
:2031E00000BF206800684DF6FF710840216808602068006840F400502168086000BF0120EF
:2032000084F8510000BF002084F8500000BF0320BDE8F081FFE7206880683040B04201D1B4
:20322000012000E00020B842B5D10020F0E7000010B52DED028B114890ED000AB5EEC00A3D
:20324000F1EE10FA06D3D0ED000AB0EE600A3220FFF7C2FB0A4800F04EFAB5EEC00AF1EE02
:2032600010FA07D3064800F046FAB0EE408A9620FFF7B2FBBDEC028B10BD00008000002088
:203280007800002010B500F069FF10BD70B50446FFF7F8FF601C00B970BD00F047FC251A7C
:2032A0000121C1EB450000F061FF00BFF4E700002DE9F04104460E461746F3200A49086001
:2032C000FDF7E8FD002509E016F805C06246002321461846FDF792FD641C6D1CBD42F3DB4B
:2032E000FDF782FDBDE8F0810C3C024010B586B00446F32009490860FDF7CCFD1422084965
:2033000001A8FDF7FBF8049400200090694601A8FDF712FDFDF768FD06B010BD0C3C024014
:20332000F84800087FB50446144801F09BFA05462146684600F039FB18E0284601F06CFAA4
:2033400006466A463146304600F026FB48B12146284600F035F8684600F034FB012004B0E6
:2033600070BD284601F05BFA054600BF002DE4D1684600F027FB0020F1E700005001002057
:2033800010B50446204600F081F810BD1FB5684600F0D0FB684600F079F8684600F04FF851
:2033A00030B16846FFF7BEFF10B9684601F0B0F800F022F86C46204600F096F904461FBDF4
:2033C00070B504460D46204601F026FA46682846B047204601F020FA06463146054801F02F
:2033E00044FA2CB1204601F01DFA064601F0D6F870BD00005001002070B50C4801F032FA05
:2034000004460FE0204601F007FA0546284600F0B6FA10B9284600F0A9FA204601F0FFF9A9
:20342000044600BF002CEDD170BD00005001002010B5044600F07AFB2168401A10BDF8B52A
:20344000044600F09FFD002000900A220421684600F006FE2046009900F090F870B12046F5
:2034600001F08EF805460021204600F0EEF806463222294600F0F4FD0120F8BD204601F010
:203480007FF808B10120F8E70020F6E72DE9F84F0646304601F074F8B0F57A7F01DD642083
:2034A00000E00A200746002435E000F06BFD00252FE0304601F064F881460A2100F0F4FD5A
:2034C000304601F05DF881460021304600F0BDF882463A46494600F0D5FD002000900A22B8
:2034E0000421684600F0BCFD304601F049F881460021304600F0A9F88246494600F064FD11
:203500008046B8F1000F01D1012000E0002004466D1C022DCDDB002CC7D0BDE8F88F0000A1
:2035200010B50446206850B109480068401C084908600849206809680844064908600020B8
:203540002060A0606068FCF7F6FE0020606010BDA4000020AC00002038B501466846CD68E8
:203560004C686219147804705478447000BFBDF80030C868801CC860184638BD70B5044642
:203580000D462046FFF7CCFF0DB9002070BD0B480068401C09490860094800682844084957
:2035A00008602846FCF798FE6060606800B12560606808B10120E9E70020E7E7A0000020CE
:2035C000A80000202DE9F0410446102000F0EAFF064600F083F806463546204600F0D0FFE6
:2035E000074639462846FFF7C9FF40B1D4E900216868FCF73EFFA068A860E068E8602846F6
:20360000BDE8F08170B505460E46144631462846FFF7B4FF18B12146284600F00FF870BD26
:2036200010B50446204600F014F810BD30B505460C46A1B2284600F020F830BDD0E9012337
:20364000D1548268521C82607047024650680844704738B50446E26860688118684600F0D1
:20366000ADFB009DE068001DE060284638BD10B504462046FFF784FE10BD18B56A46118035
:2036800000BFD0E901341A199DF8003013709DF80130537000BF8268921C826018BD10B5A6
:2036A00004462046FFF758FF00B210BD0146CB684A68D05CCA68521CCA60704770B5044646
:2036C0000D461646002020606060A060E060324629462046FFF796FF204670BD00210160AE
:2036E00041608160C160704710B504462046FFF717FF204610BDB0F90410491C11B9BFEE23
:20370000000A7047B0F90410490200EE101AF8EEC00A90ED000AB8EEC01A80EE810AF0E741
:203720000146B1F904004FF4007202EB40200A68904201DB012070470020FCE710B500F0E2
:2037400003F810BD00BFFEE708B5FDF7E9FC0320FDF7B6FE002211466FF00B00FDF771FE56
:20376000002211466FF00A00FDF76BFE002211466FF00900FDF765FE00221146501FFDF7F6
:2037800060FE00221146101FFDF75BFE00221146901EFDF756FE00221146501EFDF751FE3D
:2037A00000BF002000906F48006840F001006D4908600846006800F00100009000BF00BF77
:2037C000002000900846006840F0020008600846006800F00200009000BF00BF0020009083
:2037E0000846006840F0040008600846006800F00400009000BF00BF002000900846006859
:2038000040F0080008600846006800F00800009000BF00BF002000900846006840F01000A6
:2038200008600846006800F01000009000BF00BF002000900846006840F0200008600846F0
:20384000006800F02000009000BF00BF002000900846006840F0400008600846006800F0FE
:203860004000009000BF00BF002000900846006840F0800008600846006800F080000090C6
:2038800000BF00BF002000900846006840F4807008600846006800F48070009000BF00BF10
:2038A000002000902F481030006840F001002D49103108600846006800F00100009000BFF3
:2038C00000BF002000900846006840F0020008600846006800F00200009000BF00BF002053
:2038E00000900846006840F0040008600846006800F00400009000BF00BF0020009019481D
:20390000006840F40000174908600846006800F40000009000BF00BF00200090114814303E
:20392000006840F080600F49143108600846006800F08060009000BF00BF00200090084678
:20394000006840F4005008600846006800F40050009000BFFFF7EEFA00F054FB00F0D0FDF0
:2039600008BD0000303802400170704710B504462068FFF77CFE00F0D9F8A06010BD10B556
:20398000044600F0D3F8A168401AB0F57A7F01D2012010BD0020FCE770B504460D4616463F
:2039A00031462846E268904770BD70B504460D4600206060A060E0602846FFF703FE20600D
:2039C000204670BD70B50446206828B12068FFF78BFE054600F0E2FD204670BD014800780F
:2039E000704700004F0100200A780270704701707047000070B500F099F80646FEF7D6FF11
:203A0000B04200D970BDFFF73DFC00251CE0134800EB05108068B04215D8104800EB0514E0
:203A200020688047207B50B100BFD4E901100844A06000F07BF8A1688842F6D802E04FF09D
:203A4000FF30A06000BF6D1C022DE0D3FEF7AEFF0446FFF71BFC00BFD4E700002002002058
:203A600010B5002006E04FF0FF31064A02EB00129160401C0228F6D300F044FB00F01CFB47
:203A800010BD0000200200202DE9F04385B004460D4616461F46DDE90C8900950D4850F8AE
:203AA000260001900C4850F8270002900B4850F8280003900A4850F829000490A4F1410176
:203AC000084A52F821006946FDF7FEF905B0BDE8F08300004C490008604900086C490008B7
:203AE000784900082049000870B504460D46A4F14101054A52F821002946FDF7F1FA0128C2
:203B000000D170BD0020FCE72049000870B504460D461646A4F14101034A52F8210032460E
:203B20002946FDF7E5FA70BD2049000810B5FDF7E5FA10BD10B50446002201212046FFF791
:203B4000BDFD0446204610BD10B50446282201212046FFF7B3FD0446204610BD70B50446BB
:203B60000D462B2203212046FFF7A8FD044629462046FFF75BFD204670BD2DE9F0410446EF
:203B8000204600F001FD00F0E9F9054605F59636207800EB0020217800EB014000EB016733
:203BA00000E080C5B542FCD1BDE8F0812DE9F04704460D4617469846DDF82090484600F0DE
:203BC000E3FC2E4606E0E219054B2146304600F035F8761C05EB0800B042F4DABDE8F08701
:203BE000470100202DE9F04104460D4616461F46DDF81880404600F0C7FCA2190C4B214699
:203C0000284600F01BF8A219E819094B214600F015F8EA19064B2946204600F031F8EA197A
:203C2000A019034B294600F02BF8BDE8F08100004701002010B500F0CFF810BD2DE9F047E7
:203C400006460C4617469846404600F09DFC00F085F9204406EB860100EB811500F07EF94A
:203C600000F59639FFF7BAFE8246204604E04D4501D205F801AB401CB842F8DDBDE8F0876B
:203C80002DE9FF4106461F46DDE90110884203DA02A901A800F01AFE384600F075FC00F074
:203CA0005DF93044019901EB810100EB811400F055F900F59638FFF791FE0546019805E063
:203CC000444500D2257004F5A074401C02998842F6DBBDE8FF8100001FB50E48FFF74DFFC4
:203CE000FFF7A6FAFFF7A6FF0B48807988B10A48B0F904106846FFF731FF0446FFF7B7FC38
:203D00006C462046FFF7F0FC044600200249887100BF1FBD30010020780000202DE9F04130
:203D2000044600BF0020E06000BF2046FFF7BEFC0646292E04D02A2E11D02C2E34D120E036
:203D40002046FFF786FC00EE100AB8EE400ADFED180A80EE201A174880ED001A24E02046A7
:203D6000FFF75EFC1449086000208880012088710D68E91705EBD1314914481CFFF7B6FA1E
:203D800012E02046FFF78BFC07462046FFF761FC804607212046FFF758FC05462A46414668
:203DA0003846FEF743FE00BF00BF0120BDE8F0810000C842800000207800002002460020F0
:203DC000106031B100BF02E00B5C1354401C0428FAD310467047000008B500200C494860E6
:203DE0000846FCF79DFE90B901210948FCF72CFE68B9F0204FF4A073064A0749009004480B
:203E0000FCF773FF18B901210148FCF7BAFE08BDE802002028030020282F012000B58BB0D4
:203E20001422424906A8FCF769FB06A94048FDF74BF841F6580006900E200A9006A93D482D
:203E4000FDF742F84FF47060069006A93848FDF73BF84FF49860069006A93748FDF734F816
:203E60004FF48960069006A93448FDF72DF84FF47840069006A93248FDF726F8314832497C
:203E800008600020486000212F4881604FF00051C160491001610021416181614621C161DF
:203EA0000D2101624FF4C3714162FD2181624FF4CC71C16240F207110163002180F8341028
:203EC00080F8351080F83610FDF71EFA08B1FFF739FC40200190012002900020039001A976
:203EE0001348FCF7F1FF012240211148FDF700F9FEF72AFD0521154881600021C1600020D8
:203F000012490861002111480162FF2141620521C16100200D4988610D4808600D4801780B
:203F20000D4800F01FF80BB000BD00000C490008000402400000024000080240000C024030
:203F4000001002400068014040020020E802002000B0024047010020B000002000487047D1
:203F6000282F012070B504460D4600232A4621460348FDF719F900210148FDF79EF970BD9A
:203F80004002002038B56C4600BFFFF7CFFD206000BF00BF06E06846FFF74AFA642801D96D
:203FA000002038BD00F050F80028F4D106E06846FFF73EFA642801D90020F2E700F044F87A
:203FC0000028F4D00120ECE72DE9F84305460E46002700200090A84600240DE00A220121ED
:203FE000684600F03DF830B118F804009DF80010884200D07F1C641CB442EFDB3846BDE8BC
:020000040800F2
:20400000F883000000B585B014220C496846FCF775FA69460A48FCF757FF0A48FDF758FFB9
:204020001020009000200190022002900020049069460348FCF748FF05B000BDAC49000804
:20404000001002401800002010B510210348FDF747F8012800D110BD0020FCE70010024046
:2040600070B504460D461646AAB2334621460448FDF77FFF08B1002070BD0120FCE700001E
:204080001800002070B504460D461646AAB2334621460448FEF77EF808B1002070BD0120B0
:2040A000FCE700001800002013B50C46224604216846FFF7E7FF1CBD08B500BF00200090AF
:2040C0000E48006840F001000C4908600846006800F00100009000BF080609490860002056
:2040E0004860002106488160491EC16000210161FEF7D6FA0248FEF7EEFA08BD4038024052
:20410000285B022008B500BF002000901048006840F002000E4908600846006800F0020075
:20412000009000BF0B480C4908604DF2EF2048600021094881600161FEF7B2FA1D20FDF7A3
:2041400073F9012211461D20FDF77BF908BD00004038024000040040645B022010B5024821
:20416000FEF7D7FA10BD0000645B022010B504460348C460FEF794FA0148FEF7BBFA10BD0A
:20418000645B022010B50348006810B101480068804710BD7000002010B504461448046061
:2041A000012200211E20FDF74CF91E20FDF73CF910481149086013210F48C1600F48006858
:2041C000400842F21071B0FBF1F0401E0A4948600021094801618160FEF762FA08B1FFF748
:2041E000B1FA0548FEF786FA08B1FFF7ABFA10BD7000002000080040A05B02200C00002010
:204200002DE9FC4705460E4617469846DDE90A9A00240BE000200090019038F8141019F84C
:20422000040000230322FFF72FFC641C5445F1DB00240AE000200090019035F81410305DFF
:2042400000230122FFF720FC641CBC42F2DB002000900223032201900D4801884320FFF7F9
:2042600013FC00200090022303220190094801884320FFF709FC00200090022303220190E1
:20428000054801884320FFF7FFFBBDE8FC8700008C4900088E49000890490008074A084B8C
:2042A0001B6802F81300064B1B6802EB43025170034A1268521C024B1A607047DC5B02209B
:2042C000540100200348006808B9012070470020FCE70000540100201CB500200DE00021A6
:2042E00008E0002200EB40030F4C04EBC30343F82120491C0629F4DB401C0528EFDB002024
:204300000A4908600A48FFF747FF052009490A4B0622CDE9001009490948FFF771FF012070
:20432000084908701CBD0000F05B02205401002049430008740100206A01002064010020C0
:2043400058010020790100202DE9F0475D48007808B9BDE8F087FFF7E9FB064600249EE03B
:20436000594A32F81410594A105D0022FFF7CEFB002584E0564A32F81510564A505DFFF7A0
:20438000B3FB074605EB4500534901EB400010F80490B9F1000F71D005EB45004F4901EBD6
:2043A000C00050F82400E0B305EB450001EBC00050F82400401CA0B305EB450001EBC00061
:2043C00050F82400A6EB0008B8F5FA7F12D94FF0FF3005EB4501414A02EBC10141F824008C
:2043E00005EB45013C4A02EB4101085D0121FFF755FF15E0B8F1640F12D98FB14FF0FF3057
:2044000005EB4501354A02EBC10141F8240005EB4501314A02EB4101085D0221FFF73EFF40
:204420002CE0FFE7C7B905EB45002C4901EBC00050F82400401C78B105EB450001EBC000E2
:2044400040F8246005EB4501234A02EB4101085D0021FFF723FF11E087B105EB45001F496A
:2044600001EBC00050F82400401C38B9002005EB45011A4A02EBC10141F824006D1C052D56
:20448000FFF678AF01224FF470414220FFF73EFB01224FF440714420FFF738FB641C062C02
:2044A000FFF65EAFFEF772FC01224FF470414220FFF72CFB01224FF440714420FFF726FB6F
:2044C00000BF46E77901002058010020640100206A01002074010020C0490008F05B0220BA
:2044E00070B505460C462646E01704EB9070821029460248FCF76EFA70BD000010000020A5
:2045000010B50248FCF78DFA10BD00001000002070B505462846FFF7C9F804460B4E272C8A
:2045200006D0292C06D02A2C05D02C2C06D103E0074E03E000BF00BF064E00BF00BF362C53
:2045400002DA2846B04770BD0020FCE759450008614500081D3D0008014600207047000016
:2045600070B5054672B6054844680146086880F3088800BF62B6A047012070BD00000208DA
:2045800001460868704700000178172902D00178014A1170704700004F01002010B5FBF7FF
:2045A000CAFE10BD10B5040007D1012405E0FBF7F1FF006800B9044880472046FBF78CFEC3
:2045C0000028F4D010BD00003906000800B500213F48FFF70CFA01213E48FFF708FA0221BF
:2045E0003D48FFF704FA03213C48FFF700FA04213B48FFF7FCF905213A48FFF7F8F9062161
:204600003948FFF7F4F907213848FFF7F0F908213748FFF7ECF909213648FFF7E8F90A2182
:204620003548FFF7E4F90B213448FFF7E0F90C213348FFF7DCF90D213248FFF7D8F90E21A2
:204640003148FFF7D4F90F213048FFF7D0F910212F48FFF7CCF911212E48FFF7C8F91221C2
:204660002D48FFF7C4F913212C48FFF7C0F914212B48FFF7BCF915212A48FFF7B8F91621E2
:204680002948FFF7B4F917212848FFF7B0F918212748FFF7ACF919212648FFF7A8F90E210E
:2046A0002548FFF7A4F903212448FFF7A0F905212348FFF79CF901212248FFF798F900218B
:2046C0002148FFF794F91F492048FFF78DF900BD300100203101002032010020330100209B
:2046E0003401002035010020360100203701002038010020390100203A0100203B010020F6
:204700003C0100203D0100203E0100203F0100204001002041010020420100204301002095
:204720004401002045010020460100204701002048010020490100204A0100204B01002035
:204740004C0100204D0100204E0100204F01002010B500210348FFF707F901210248FFF716
:2047600003F910BD880000208900002007484FF0FF31016081800021817100BF0448BFEE34
:20478000000A80ED000A00BF70470000780000208000002010B5024800F095F810BD000091
:2047A0005001002086B0FEF7C9FFFFF759F9FFF735FBFFF791FD05AC00BFFFF7B7F920600D
:2047C00000BF00BF24E0FFF787FAFFF77BFD88B91048007870B901200E49087001A8FFF7A9
:2047E000B3F90446FEF743FF01AC2046FEF77CFF044600BFFEF7CAFD00BFFFF797F9059961
:20480000401A40F6B831884202D90020FFF7A8FED9E70000740000200146086870470146B5
:204820004868704770B50446206828B12068FFF7C9F80546FFF7B2FE204670BD70B505460E
:20484000286808B9002070BD284600F00BF8044603E02046FFF7E3FF044660680028F8D1EB
:204860002046F0E70146086870472DE9F041074688463846FFF7F6FF044620E02046FFF71C
:20488000CBFF404517D16568A6683846FFF7EAFFA04204D10DB10020A8603D6009E0384608
:2048A000FFF7CCFFA04202D10020706001E0AE607560BDE8F0812046FFF7B1FF0446002C36
:2048C000DCD100BFF5E700210160704702680B6803600A6070474FF04070E1EE100A704767
:2048E000000000000000000001020304060708090000000001020304000000000000000086
:20490000050000000000000002000000030000000200000000000000000000000900000082
:20492000000002400004024000080240000C0240001002400014024000180240001C0240F7
:204940000020024000240240002802400300000001000000000011100000000002000000FE
:2049600000000000020000000100000000000000020000000300000000000000050000002A
:20498000070000000A0000000C0000000100020004000800100020004000800000010002F8
:2049A00000040008001000200040008064000000020000000100000003000000050000008C
:2049C000050A0F110100060B10130200070C00120300080D14000400090E150000000000F0
:2049E0002D0000002E00000030000000463100004F4E310031000000463200004F4E32006F
:204A0000320000004633000033000000463400003400000046350000350000003600000024
:204A2000370000003800000039000000574600004D00000055000000457363004E6F6E65E4
:204A40000000000043680000526567204C656674000000006C6566740000000052656720F9
:204A6000726967687400000052656720EAEDEEEFEAE00000A44A0008000000200002000044
:204A8000E8010008484B00080002002018DF020044020008D9FCFFFFB9FCFFFF31FBFFFF71
:204AA000F5FCFFFF41321042012324F4543002403D3401400415616A02241909F220024509
:204AC0000702290604A2FFFFFF121012201240128012011B0242012B44440A111A04161D31
:204AE000104141410F613201133C4A1408EC491B08F8041A040C1A0C041A14041AE8101A85
:204B0000F40411190C1A08041A10041A18041A1C041A20041A24041A28041AE4241AE004BD
:204B20001A380C1A54041A60041A44041A2C041A30041A34041AF0201AFC041A480C1A5CB3
:204B4000041A680441000000FFFFFFFFFFFFFFFFFFFFFFFFFFFFFFFFFFFFFFFFFFFFFFFFA2
:204B6000FFFFFFFFFFFFFFFFFFFFFFFFFFFFFFFFFFFFFFFFFFFFFFFFFFFFFFFFFFFFFFFF55
:204B8000FFFFFFFFFFFFFFFFFFFFFFFFFFFFFFFFFFFFFFFFFFFFFFFFFFFFFFFFFFFFFFFF35
:204BA000FFFFFFFFFFFFFFFFFFFFFFFFFFFFFFFFFFFFFFFFFFFFFFFFFFFFFFFFFFFFFFFF15
:204BC000FFFFFFFFFFFFFFFFFFFFFFFFFFFFFFFFFFFFFFFFFFFFFFFFFFFFFFFFFFFFFFFFF5
:020000040800F2
:020000040800F2
:2080000070B504460D462A2205212046FFF7CDFB044629462046FFF767FB204670BD70B5D9
:2080200004460D46292205212046FFF7BEFB044629462046FFF758FB204670BD10B5044613
:20804000272201212046FFF7B0FB0446204610BD2DE9F04105460E4614462C2240F2072149
:208060002846FFF7A2FB054631462846FFF763FB4FF40071204600F01DF907463946284621
:20808000FFF749FB4FF4007221462846FFF734FB2846BDE8F08100000148007870470000FB
:2080A000A00000201FB512A0FFF7ACFD1349486008464068401CC8B1084641686846FFF771
:2080C0009FFF0446FFF7D2FA6C462046FFF783FB044601200949087001E0FFF7A1F9074875
:2080E00000780028F9D1FFF7BBFD00BF1FBD000047362D34392D502E62696E00A40000200E
:208100002DE9F04119A0FFF77DFD0446601C58B32046E11704EBD1314FEA6148E11704EB06
:20812000D1314914A4EB414109B108F101084046FFF720FA104E254611E010494FF40070B7
:20814000FFF770FD07463A460C493046FFF7F4F921462846FEF798FBED1B3E4400BF002D6E
:20816000EBDCFFF77DFD00BFBDE8F08147362D34392D442E62696E000000020818050020BD
:2081800070B5044600BF0020E06000BF2046FFF704FB0546064E282D02D02B2D04D101E063
:2081A000044E01E0044E00BF00BF2046B04770BD6F570008BD4C0008796700080246002003
:2081C00002E0135C0B54401C0428FAD37047000000B585B0142206496846F8F789F96946A6
:2081E0000448F8F7AFFD0448F9F7CCFD05B000BD5C930008000002404400002070B5044615
:208200000D461646AAB2334621460448F9F701FE08B9012070BD0020FCE7000044000020C2
:2082200070B504460D461646AAB2334621460448F9F7A5FE08B9012070BD0020FCE70000F3
:208240004400002013B50C46224604216846FFF7E7FF1CBD10B50248FAF7CEF810BD00001D
:20826000DC04002010B504460348C460FAF79AF80148FAF7B2F810BDDC04002070B50446DD
:208280002046FFF78AFA0546074E25B1282D04D02B2D05D102E0054E02E000BF044E00BF4A
:2082A00000BF2046B04770BD71570008C96D00088181000870B505460C462646E01704EB49
:2082C0009070821029460248F8F728FC70BD00003C00002010B50248F8F747FC10BD0000A9
:2082E0003C00002001460868704770B504460D462046FFF7F7FF02462846FFF7F3FF82423E
:2083000001D0002070BDD4E900216868F8F77FF808B90120F6E70020F4E710B5F7F7D9FFE6
:2083200010BD000010B5040007D1012405E0F8F77BF9006800B9044880472046F7F79AFF41
:208340000028F4D010BD0000CD06000810B500210348FFF7C9FB01210248FFF7C5FB10BDAF
:20836000B0000020B1000020034800210170491E416000BF70470000A400002010B502482E
:20838000FFF7FAFB10BD00001807002010B54FF4807206490648F8F766F800231A46194620
:2083A0001846FFF71FFA0349086010BD90930008DC0F0020E400002070B5044600250848B1
:2083C000005D58B901200649085501F10802105D0A1D52F82420116888470546284670BD16
:2083E000E80000202DE9F04104460D4616460649085D091F51F8241032460B6929469847A2
:2084000007463846BDE8F081F00000202DE9F04104460D4616461F460749085D091F51F8A0
:2084200024103B463246D1F808C02946E04780464046BDE8F0810000F000002070B5044607
:20844000044A105D121F52F82420516888470546284670BDF00000202DE9F04104460D4640
:2084600016461F460749085D091F51F824103B463246D1F80CC02946E04780464046BDE8CC
:20848000F0810000F000002038B50546284600F098FB044664B969462846FEF72AFF044646
:2084A00034B92869FEF750FD04460CB900202860204638BD2DE9F04F89B004460D4607A90F
:2084C0002046FEF716FF0890089808B9607D0890089818B1089809B0BDE8F08FE06A002866
:2084E0007CD0681C002843D1D4F82CA05AF8040B029002200190A76867B300BF0397002090
:2085000004900198801C019000BF05970498401C049039462046FEF77EFA0746012F02D871
:2085200002206075D7E7781C10B901206075D2E70598401C8742E8D0DDE90101884205D891
:2085400004984AF8040B03984AF8040B07988069B842D3D80198E16A0860DDE90101884237
:2085600003D80020CAF80000FAE011200890F7E0E068A84200D2E568A561002DF4D0691EF5
:208580002046FBF7FFFCE061E1690798FBF713FD8146B9F1000F02D1022060759BE70798F1
:2085A0004089401E691E00EA51208144208BC0F308000028D8D0206A4845D5D0207D00F06E
:2085C000800080B1226A07994878012304F13001FFF742FF18B1012060757CE712E0207DCC
:2085E00000F07F0020750799487801234A4604F13001FFF70BFF10B1012060756BE7C4F878
:208600002090ADE0E068A84204D2207D00F0020000B9E568A06906904FF0000BC4F818B013
:20862000002D6AD0079840894FEA4028069890B1681EB0FBF8F10698401EB0FBF8F081427F
:2086400009D30698401EA8F101018843A061A0692D1AE66912E0A6687EB900212046FCF78B
:2086600081F80646012E02D10220607533E7701C10B9012060752EE7A660E661D6B325E0E7
:20868000A5EB0805A0694044A061207D00F0020040B100BF31462046FCF764F8064636B909
:2086A000002515E031462046FEF7B5F90646701C10B9012060750EE7012E03D90798806901
:2086C000B04202D80220607505E7E6614545D7D800BFA0692844A061C5F3080050B13146FE
:2086E0000798FBF768FC8346BBF1000F03D102206075F0E601E00BEB552BE168A0698842ED
:2087000005D9A069E060207D40F040002075208BC0F3080020B3206A584521D0207D00F0B2
:20872000800078B1226A07994878012304F13001FFF792FE10B101206075CCE6207D00F0DE
:208740007F0020750799487801235A4604F13001FFF75CFE10B101206075BCE6C4F820B086
:208760000898B8E6F7B582B016460398019001A8FCF708F90546002D02DA0B2005B0F0BDD7
:208780000F4850F8254024B12046FBF7E7FB00202070029810B1002002990870084902989D
:2087A00041F82500029808B1012E01D00020E5E7002202A903A8FBF747FD07463846DDE7DF
:2087C000000000202DE9F74F90B0044616461CB9092013B0BDE8F08F06F03F06324602A9F4
:2087E00011A8FBF731FD0546002D7DD1029803904FF4007000F05CFA8246BAF1000F01D160
:208800001120E6E70298C0F80CA003A81199FBF79BFE05468DB99DF83B0000F0800008B1F2
:2088200006250AE026F0010008B1012000E00020014603A8FEF74AFB054606F01C00002881
:208840005DD06DB1042D08D1FEF7A4FC18B103A8FBF7F7FF00E01220054646F008060AE047
:208860009DF8120000F0110008B1072503E006F0040000B10825002D52D106F0080000283A
:208880004ED000F073FA01900B9901F10E000199FEF723FD0B9901F116000199FEF71DFD24
:2088A00020200B99C8720B990298FEF7E5FC814600220B990298FEF7FEFC0B9901F11C00BE
:2088C0000021FEF70AFD01200299C870B9F1000F26D00298006B01900022494603A8FCF7F3
:2088E00075F80546E5B900E090E0DDE90110FBF7D7FE0546A9F101000299086110E07DB924
:208900009DF8120000F0100008B1042508E006F0020028B19DF8120000F0010000B10725A0
:20892000BDB906F0080008B146F040060298006B60620B98A06226F0010008B1012000E051
:208940000020014603A8FEF739FC2061206900B90225002D57D10B990298FEF78DFCA060E0
:208960000B9901F11C00FEF79AFCE0600020E062029820600298C088A0802675002060756C
:208980002062A0614FF40072002104F13000FEF7D7F806F0200038B3E06828B3E068A06128
:2089A000029840894FEA402BA768D4F80C800CE039462046FEF72FF80746012F00D80225E0
:2089C000781C00B90125A8EB0B080DB9D845EFD8E7614DB9C8F3080030B139460298FBF7D7
:2089E000EAFA009008B902250DE0009800EB58202062226A02994878012304F13001FFF78A
:208A000005FD00B10125504600F058F90DB1002020602846DDE62DE9FF4F85B004461546D9
:208A20009A46DDF818B00020CAF8000003A92046FEF75FFC0490049810B9607D049018B142
:208A4000049809B0BDE8F08F207D00F0010008B90720F6E7A169E068401A019001988542AD
:208A600000D9019DA8E0208BC0F30800002874D103984089401EA16900EA5129B9F1000F3B
:208A80001FD1A06910B9A06802900CE0E06A28B12046A169FBF776FA029004E02046E16973
:208AA000FDF7B9FF02900298022802D202206075C7E70298401C10B901206075C1E7029844
:208AC000E061E1690398FBF776FA064616B902206075B6E74E444FEA5528B8F1000F29D066
:208AE00009EB080003994989884203D903984089A0EB090803994878434632465946FFF774
:208B000085FC10B1012060759BE7207D00F0800068B1206A801B404509D2216A891B0BEBCB
:208B200041204FF4007204F13001FDF7FCFF4FEA482737E0206AB04220D0207D00F08000D2
:208B400080B1226A03994878012304F13001FFF783FC18B10120607573E710E0207D00F0A7
:208B60007F002075039948780123324604F13001FFF74CFC10B10120607562E72662208B52
:208B8000C0F30800C0F50077AF4200D92F46208BC0F3080204F1300011183A465846FDF7E7
:208BA000C2FF00BFBB44A0693844A061DAF800003844CAF80000ED1B002D7FF454AF0020D5
:208BC0003FE7F8B5044669462046FEF792FB0646002E44D1207D00F0400000283FD0207DB1
:208BE00000F0800070B1226A00994878012304F13001FFF731FC08B10120F8BD207D00F076
:208C00007F00207500F0B2F80746616A0098FBF747FD06461EBBA56AE87A40F02000E87280
:208C20002946A2682068FEF746FB05F11C00E168FEF753FB394605F11600FEF74EFB002175
:208C400005F11200FEF762F801200099C8700098FEF772F80646207D00F0BF002075304631
:208C6000CBE7000010B50246802A01DA10461BE051B1FF2A01DD002304E0A2F180030B4CE2
:208C800034F8133018460FE0002007E0074B33F81030934200D103E0431C98B28028F5DBAA
:208CA00000BF00F18003D8B210BD0000708E000810B504462046F7F7DDFA10BD10B504460E
:208CC0002046F7F706FB10BD30B5B0F5805F01DA244D00E0244D294600BF31F8022B0AB12D
:208CE000904200DA3CE031F8023B1C12DBB2D518854230DD092C2CD2DFE804F005090F13AC
:208D0000171B1F232700851A31F8150021E0851A05F00105451BA8B21BE0A0F11005A8B28B
:208D200017E0A0F12005A8B213E0A0F13005A8B20FE0A0F11A05A8B20BE000F10805A8B2DD
:208D400007E0A0F15005A8B203E0A0F5E355A8B200BF00BF04E0002CBFD101EB4301BCE7F1
:208D600000BF30BD708F0008629100080020704710B588B0FEF754FDFEF77AFF0D4A07CA95
:208D800001AB07C301A90C4A126851F822008047FEF78EFF04A8FFF751F90446FEF766FCA2
:208DA00004AC2046FEF717FD0446FDF72BFB002008B010BD849300089C0000204FF04070C1
:208DC000E1EE100A7047808182838485868788898A8B8C8D8E8F90919293949596979899AE
:208DE0009A9B9C9D9E9F808182838485868788898A8B8C8D8E8FB0B1B2B3B4B5B6B7B8B943
:208E0000BABBBCBDBEBFC0C1C2C3C4C5C6C7C8C9CACBCCCDCECFD0D1D2D3D4D5D6D7D8D922
:208E2000DADBDCDDDEDF909192939495969798999A9B9C9D9E9FF0F0F2F2F4F4F6F6F8F906
:208E4000FAFBFCFDFEFF01030507090E10121416181C1E000100040010004000000100020A
:208E60000000010002000400080010002000000010041104120413041404150416041704F7
:208E8000180419041A041B041C041D041E041F04200421042204230424042504260427049A
:208EA000280429042A042B042C042D042E042F04300431043204330434043504360437047A
:208EC000380439043A043B043C043D043E043F049125922593250225242561256225562579
:208EE00055256325512557255D255C255B251025142534252C251C2500253C255E255F2515
:208F00005A25542569256625602550256C25672568256425652559255825522553256B250F
:208F20006A2518250C25882584258C25902580254004410442044304440445044604470497
:208F4000480449044A044B044C044D044E044F040104510404045404070457040E045E0401
:208F6000B0001922B7001A221621A400A025A00061001A03E0001703F8000703FF00010059
:208F800078010001300132010601390110014A012E017901060180014D004302810182018E
:208FA00082018401840186018701870189018A018B018B018D018E018F01900191019101FE
:208FC00093019401F60196019701980198013D029B019C019D0120029F01A001A001A20153
:208FE000A201A401A401A601A701A701A901AA01AB01AC01AC01AE01AF01AF01B101B201BE
:20900000B301B301B501B501B701B801B801BA01BB01BC01BC01BE01F701C001C101C20164
:20902000C301C401C501C401C701C801C701CA01CB01CA01CD011001DD0101008E01DE0135
:209040001201F3010300F101F401F401F8012801220212013A020900652C3B023B023D0242
:20906000662C3F0240024102410246020A015302400081018601550289018A0158028F010E
:209080005A0290015C025D025E025F029301610262029401640265026602670297019601A8
:2090A0006A02622C6C026D026E029C01700271029D01730274029F017602770278027902D8
:2090C0007A027B027C02642C7E027F02A60181028202A9018402850286028702AE0144021D
:2090E000B101B20145028D028E028F0290029102B7017B030300FD03FE03FF03AC03040000
:209100008603880389038A03B1031103C2030200A303A303C4030803CC0303008C038E0383
:209120008F03D8031801F2030A00F903F303F403F503F603F703F703F903FA03FA033004B2
:20914000200350041007600422018A043601C1040E01CF040100C004D00444016105260420
:2091600000007D1D0100632C001E9601A01E5A01001F0806101F0606201F0806301F0806E5
:20918000401F0606511F0700591F521F5B1F541F5D1F561F5F1F601F0806701F0E00BA1FA5
:2091A000BB1FC81FC91FCA1FCB1FDA1FDB1FF81FF91FEA1FEB1FFA1FFB1F801F0806901F6F
:2091C0000806A01F0806B01F0400B81FB91FB21FBC1FCC1F0100C31FD01F0206E01F0206BA
:2091E000E51F0100EC1FF21F0100FC1F4E210100322170211002842101008321D0241A056F
:20920000302C2F04602C0201672C0601752C0201802C6401002D260841FF1A030000000029
:209220000000000000000102030406070809000000000102030400000000000000000000FC
:20924000000000000000000002000000000000000200000000000000020000000000000008
:209260000300000001000000000011100000000002000000000000000200000001000000C4
:209280000000000002000000030000000000000005000000070000000A0000000C000000A7
:2092A000000002400004024000080240000C0240001002400014024000180240001C02402E
:2092C000010002000400080010002000400080000001000200040008001000200040008090
:2092E0000500400005008000020080000500000105000002020000010400001004000020DA
:20930000050002000200008002000400020008000200200001000100030000080300001072
:209320000300002006002000060040000600800006000001030020000600001006000020B2
:2093400006000040020002000000040008000000020001000100001008000000E0000000BB
:20936000020000000100000003000000050000005B4C0008FD3F000831730008F13E00080C
:20938000793E000867570008655C0008D9640008000000000000000000000000000000003A
:2093A0000000000000000000000000000000000000000000000000000000000000000000AD
:2093C00000000000000000000000000000000000000000000000000000000000000000008D
:2093E00000000000000000000000000000000000000000000000000000000000000000006D
:2094000000000000000000000000000000000000000000000000000000000000000000004C
:2094200000000000000000000000000000000000000000000000000000000000000000002C
:2094400000000000000000000000000000000000000000000000000000000000000000000C
:209460000000000000000000000000000000000000000000000000000000000000000000EC
:20948000000000000000000000000000000000004D534300C494000800000020E800000081
:2094A000C4010008AC950008E800002058F00100E0010008B5EEFFFF95EEFFFFC1EEFFFF8D
:2094C000CDEEFFFF000000000000000000000000100000000100000090940008080000008E
:2094E000016500082167000821640008F14C00086957000800000000000000000024F400BC
:20950000003002400000000000300140000000000000000000000000020000000100000065
:20952000000200002000000000000000000000000000000007000000000000000000000002
:2095400000000000000000000000000000000000000000000000000000000000000000000B
:2095600000000000000000000000000000000000FFFFFFFF000006000000000000000000E9
:209580000000000000000000000000000000000000000000000000000000000000000000CB
:2095A00000000000B008002000000000FFFFFFFFFFFFFFFFFFFFFFFFFFFFFFFFFFFFFFFFE7
:2095C000FFFFFFFFFFFFFFFFFFFFFFFFFFFFFFFFFFFFFFFFFFFFFFFFFFFFFFFFFFFFFFFFAB
:2095E000FFFFFFFFFFFFFFFFFFFFFFFFFFFFFFFFFFFFFFFFFFFFFFFFFFFFFFFFFFFFFFFF8B
:20960000FFFFFFFFFFFFFFFFFFFFFFFFFFFFFFFFFFFFFFFFFFFFFFFFFFFFFFFFFFFFFFFF6A
:20962000FFFFFFFFFFFFFFFFFFFFFFFFFFFFFFFFFFFFFFFFFFFFFFFFFFFFFFFFFFFFFFFF4A
:020000040801F1
:020000040802F0
:200000000000011081030208B94F0208194F0208694F0208312E0208A15202080000000095
:2000200000000000000000000000000059500208812E02080000000009500208A9500208EE
:200040009B0302089B0302089B0302089B0302089B0302089B0302089B0302089B03020860
:200060009B0302089B0302089B0302089B0302089B0302089B0302089B0302089B03020840
:200080009B0302089B0302089B0302089B0302089B0302089B0302089B0302089B03020820
:2000A0009B0302089B0302089B0302089B0302089B03020819510208455102089B0302083C
:2000C0009B0302089B0302089B0302089B0302089B0302089B0302089B0302089B030208E0
:2000E0009B0302089B0302089B0302089B0302089B0302089B0302089B0302089B030208C0
:200100009B0302089B0302089B0302089B0302089B0302089B0302089B030208715102087B
:200120009B0302089B0302089B0302089B0302089B0302089B0302089B0302089B0302087F
:200140009B0302089B0302089B0302089B0302089B0302089B0302089B0302089B0302085F
:200160009B0302089B0302089B0302089B0302089B0302089B0302089B03020800000000E7
:200180009B0302089B0302089B0302089B0302089B0302089B0302089B0302089B0302081F
:2001A0009B0302089B0302089B03020800F002F800F0BDF80AA090E8000C82448344AAF162
:2001C0000107DA4501D100F0B2F8AFF2090EBAE80F0013F0010F18BFFB1A43F0010318478E
:2001E0006C1302009C1302000A444FF0000C10F8013B13F0070408BF10F8014B1D1108BFD2
:2002000010F8015B641E05D010F8016B641E01F8016BF9D113F0080F1EBF10F8014BAD1CEA
:200220000C1B09D16D1E58BF01F801CBFAD505E014F8016B01F8016B6D1EF9D59142D6D3F0
:20024000704700000023002400250026103A28BF78C1FBD8520728BF30C148BF0B607047BE
:200260006E2900F09182702900F0B583662918F01F81652918F01C81672918F019816129FD
:20028000AFF3008003681B0A28BF41F08001692900F03E82642900F03B82752900F038824F
:2002A0006F2900F04283782900F08183E92900F0DD82E42900F0DA82F52900F0D782EF2923
:2002C00000F03F83F82900F080830368DB0928BF41F08001632901F07481732901F0798177
:2002E000E32901F08481F32901F08981002070471FB518F093F89DE8030000F045FE00F0FC
:2003000086FC01F07DFA04000020002117F0C4F9401C60600020002117F0D4F9E06000F089
:20032000F1FD1FBD10B5002001F03BFA10BD01F0D0FB1146FFF7DCFF17F078F901F06EFE62
:2003400003B4FFF7EFFF03BC01F0BCFB0B49D1F800C04A685CF8043B1068184442F8040B5C
:200360008C4528BFA1F1DC0C8A4228BFA1F1DC02C1F800C04A6020F000407047C4A6022072
:200380000948804709480047FEE7FEE7FEE7FEE7FEE7FEE7FEE7FEE7FEE7FEE70448054921
:2003A000054A064B70470000B5500208AD01020830A702200000011060FB02200000001088
:2003C00070B5064600F0B8FD056806F10B0020F00704B4429CBF002070BD2B466A68BAB131
:2003E0001068A04210D304F1080188423CBF5068586007D35168101941601168091B016032
:2004000058601460101D70BD13465268002AE7D12146284600F0A4FD0028DED170BD70B5D2
:200420000446051F00F088FD0068002C14BF446870BD002C18BFAC423CBF20466468F8D3B0
:2004400001680A18AA4218BF456003D12A6805461144016028684119A1421CBF6C6070BDA1
:200460006168696021680844286070BD53EA020C00F069802DE9F04B4FF00006002B1FBF9D
:20048000B3FA83F503FA05F424FA05F65E4012BF1643B2FA82F502FA05F4C5F120051EBF90
:2004A00022FA05FC44EA0C04203556EA044C4FEA144418BF641C4FF000084FF000099042B3
:2004C00071EB030C39D3002919BFB1FA81F701FA07F6B0FA80F700FA07F6C7F120071EBFB5
:2004E00020FA07FC46EA0C062037B6FBF4FCA7EB0507103F07F01F0BCBF120060CFA0BFBA9
:200500002CFA06F644BFB3460026202FA4BF5E464FF0000B5BEA060C08BF4FF0010B19EB8A
:200520000B09ABFB027C48EB0608C01B06FB02CC0BFB03CC71EB0C01C1E70B460246414692
:200540004846BDE8F08B13B54FF000004FF00001AFF30080BDE81C407047B2F120030AD527
:20056000C2F1200301FA02F120FA03F300FA02F041EA0301704700FA03F14FF000007047F1
:20058000B2F120030AD5C2F1200320FA02F001FA03F321FA02F140EA0300704721FA03F0E3
:2005A0004FF00001704710B5044600F0BDFC0068005D000704D5DF2C02D0A4F1200010BD88
:2005C000204610BD1CB50C46064B7B4469460090204600F0CCFF04460020694600F0DAFF73
:2005E00020461CBDC70F00000FB41CB5084B06AA7B4469460090059800F0B9FF04460020A2
:20060000694600F0C7FF20461CBC5DF814FB0000A10F00000FB47CB50C0009AA009001D00F
:200620002044401E084B7B4469460190089800F09EFF05461CB10020694600F0ABFF28468A
:200640007CBC5DF814FB0000750F000070B5044685690068C10601D5302600E02026C007D5
:2006600007D070BDD4E9012130469047206A401C20626D1EF6D570BD70B50446856900788A
:20068000C00707D170BDD4E9012120209047206A401C20626D1EF6D570BD09684A0501D517
:2006A00040B27047C905FCD500B2704709684A0501D5C0B27047C905FCD580B2704770B51D
:2006C0000C460546012A05D02878800600D5EA69002302E0012305E05B1C934202D2E05CC5
