:020000040802F0
:100000000000011081030208B94F0208194F0208CD
:10001000694F0208312E0208A152020800000000B8
:10002000000000000000000000000000595002081D
:10003000812E02080000000009500208A9500208A1
:100040009B0302089B0302089B0302089B03020810
:100050009B0302089B0302089B0302089B03020800
:100060009B0302089B0302089B0302089B030208F0
:100070009B0302089B0302089B0302089B030208E0
:100080009B0302089B0302089B0302089B030208D0
:100090009B0302089B0302089B0302089B030208C0
:1000A0009B0302089B0302089B0302089B030208B0
:1000B0009B03020819510208455102089B030208DC
:1000C0009B0302089B0302089B0302089B03020890
:1000D0009B0302089B0302089B0302089B03020880
:1000E0009B0302089B0302089B0302089B03020870
:1000F0009B0302089B0302089B0302089B03020860
:100100009B0302089B0302089B0302089B0302084F
:100110009B0302089B0302089B030208715102081B
:100120009B0302089B0302089B0302089B0302082F
:100130009B0302089B0302089B0302089B0302081F
:100140009B0302089B0302089B0302089B0302080F
:100150009B0302089B0302089B0302089B030208FF
:100160009B0302089B0302089B0302089B030208EF
:100170009B0302089B0302089B0302080000000087
:100180009B0302089B0302089B0302089B030208CF
:100190009B0302089B0302089B0302089B030208BF
:1001A0009B0302089B0302089B03020800F002F86D
:1001B00000F0BDF80AA090E8000C82448344AAF144
:1001C0000107DA4501D100F0B2F8AFF2090EBAE842
:1001D0000F0013F0010F18BFFB1A43F0010318477B
:1001E000780D0200A80D02000A444FF0000C10F830
:1001F000013B13F0070408BF10F8014B1D1108BFA5
:1002000010F8015B641E05D010F8016B641E01F844
:10021000016BF9D113F0080F1EBF10F8014BAD1C94
:100220000C1B09D16D1E58BF01F801CBFAD505E0B2
:1002300014F8016B01F8016B6D1EF9D59142D6D30C
:10024000704700000023002400250026103A28BF34
:1002500078C1FBD8520728BF30C148BF0B60704738
:100260006E2900F09182702900F0B583662917F09D
:10027000B786652917F0B486672917F0B18661291A
:10028000AFF3008003681B0A28BF41F08001692991
:1002900000F03E82642900F03B82752900F038822C
:1002A0006F2900F04283782900F08183E92900F06A
:1002B000DD82E42900F0DA82F52900F0D782EF2907
:1002C00000F03F83F82900F080830368DB0928BF32
:1002D00041F08001632901F07481732901F0798173
:1002E000E32901F08481F32901F08981002070471E
:1002F0001FB517F02BFE9DE8030000F045FE00F04F
:1003000086FC01F07DFA04000020002116F068FF51
:10031000401C60600020002116F078FFE06000F0D3
:10032000F1FD1FBD10B5002001F03BFA10BD01F03A
:10033000D0FB1146FFF7DCFF16F01CFF01F06EFE4C
:1003400003B4FFF7EFFF03BC01F0BCFB0B49D1F88E
:1003500000C04A685CF8043B1068184442F8040B7B
:100360008C4528BFA1F1DC0C8A4228BFA1F1DC0238
:10037000C1F800C04A6020F0004070472CA4022061
:100380000948804709480047FEE7FEE7FEE7FEE729
:10039000FEE7FEE7FEE7FEE7FEE7FEE70448054965
:1003A000054A064B70470000B5500208AD0102082F
:1003B00098A4022000000110C8F8022000000010DC
:1003C00070B5064600F0B8FD056806F10B0020F098
:1003D0000704B4429CBF002070BD2B466A68BAB1C6
:1003E0001068A04210D304F1080188423CBF506855
:1003F000586007D35168101941601168091B0160EA
:1004000058601460101D70BD13465268002AE7D171
:100410002146284600F0A4FD0028DED170BD70B54D
:100420000446051F00F088FD0068002C14BF4468D6
:1004300070BD002C18BFAC423CBF20466468F8D3A6
:1004400001680A18AA4218BF456003D12A68054608
:100450001144016028684119A1421CBF6C6070BD45
:100460006168696021680844286070BD53EA020C25
:1004700000F069802DE9F04B4FF00006002B1FBF04
:10048000B3FA83F503FA05F424FA05F65E4012BFC9
:100490001643B2FA82F502FA05F4C5F120051EBF33
:1004A00022FA05FC44EA0C04203556EA044C4FEAD3
:1004B000144418BF641C4FF000084FF0000990422C
:1004C00071EB030C39D3002919BFB1FA81F701FA96
:1004D00007F6B0FA80F700FA07F6C7F120071EBF4B
:1004E00020FA07FC46EA0C062037B6FBF4FCA7EB23
:1004F0000507103F07F01F0BCBF120060CFA0BFB92
:100500002CFA06F644BFB3460026202FA4BF5E4651
:100510004FF0000B5BEA060C08BF4FF0010B19EB24
:100520000B09ABFB027C48EB0608C01B06FB02CCA8
:100530000BFB03CC71EB0C01C1E70B4602464146B5
:100540004846BDE8F08B13B54FF000004FF00001B6
:10055000AFF30080BDE81C407047B2F120030AD51C
:10056000C2F1200301FA02F120FA03F300FA02F0CB
:1005700041EA0301704700FA03F14FF000007047B1
:10058000B2F120030AD5C2F1200320FA02F001FAE9
:1005900003F321FA02F140EA0300704721FA03F065
:1005A0004FF00001704710B5044600F0BDFC006834
:1005B000005D000704D5DF2C02D0A4F1200010BD9F
:1005C000204610BD1CB50C46064B7B446946009086
:1005D000204600F0CCFF04460020694600F0DAFF18
:1005E00020461CBDC70F00000FB41CB5084B06AA5F
:1005F0007B4469460090059800F0B9FF044600204E
:10060000694600F0C7FF20461CBC5DF814FB0000E3
:10061000A10F00000FB47CB50C0009AA009001D016
:100620002044401E084B7B4469460190089800F026
:100630009EFF05461CB10020694600F0ABFF28462E
:100640007CBC5DF814FB0000750F000070B504461B
:1006500085690068C10601D5302600E02026C00764
:1006600007D070BDD4E9012130469047206A401C74
:1006700020626D1EF6D570BD70B5044685690078A0
:10068000C00707D170BDD4E9012120209047206A1E
:10069000401C20626D1EF6D570BD09684A0501D563
:1006A00040B27047C905FCD500B2704709684A05D9
:1006B00001D5C0B27047C905FCD580B2704770B58E
:1006C0000C460546012A05D02878800600D5EA693F
:1006D000002302E0012305E05B1C934202D2E05CB0
:1006E0000028F9D1A869E618C01AA861286A184438
:1006F00028622846FFF7AAFF04E0D5E9012114F893
:10070000010B9047B442F8D32846FFF7B5FF70BD00
:100710002DE9F0410646002410687529314616A5DA
:1007200010D0FFF7BAFF002802DA404213A507E015
:1007300031688A0701D512A502E0490704D511A541
:10074000012401E0FFF7B2FF00210A2206F124078D
:1007500009E0B0FBF2FCB0FBF2F302FB1C0030300E
:1007600078541846491C0028F3D123462A463046BF
:10077000BDE8F04100F08EBC000000002D0000003C
:100780002B0000002000000011680268006A530579
:1007900001D508700AE0D30501D5088006E01306EC
:1007A00003D5C217C1E9000200E0086001207047CC
:1007B0002DE9FF5F15468A460446DFF8AC80F84411
:1007C0000027D8E900103E46CDE9001010E03AF8C5
:1007D00016106A4602A800F0C4FF411C07D0217819
:1007E000890603D5E269391891420DD80744761C71
:1007F0002078800602D5E069B84205DDAE42E6DB2E
:100800003AF816000028E2D1A069C01BA06120467A
:10081000FFF71CFFD8E90010CDE90010002017E019
:100820003AF818106A4602A800F09BFFB0F1FF3FAB
:1008300081460BD000250DF1080B05E0D4E901211C
:100840001BF8050090476D1C4D45F7D308F10100DA
:10085000B0428046E4DB206A384420622046FFF73D
:100860000BFFBDE8FF9F0000EEDB01002DE9F0412A
:100870008046D21D22F007020025D2E90002F529A8
:1008800015A614D0011E72F1000106DA0023D0EB88
:10089000030063EB020211A608E0D8F800108B07F2
:1008A00001D50FA602E0490701D50EA60125114684
:1008B000002408F1240704E000F09CFB30323A5594
:1008C000641C50EA0102F7D12B46324621464046CD
:1008D000BDE8F04100F0DEBB000000002D0000008C
:1008E0002B0000002000000030B4002100F124049F
:1008F00008E002F00705D208303542EA4372DB080F
:100900006554491C52EA0305F3D10468002310A280
:10091000250707D5A40600D421B1C46901230DA27F
:10092000641EC46130BC00F0B5BB10B5044621465E
:100930001068FFF7BBFE02462046BDE810400023CA
:10094000D2E7D21D22F00701D1E90023CCE7000055
:100950000000000030000000F0B40D4601880905D9
:1009600002D5214C7C4402E01F4C7C440E34002113
:1009700000F1240608E002F00F071209E75D42EAE1
:1009800003721B097754491C52EA0307F3D102781A
:100990000023120704D5702D06D009B102231134AB
:1009A0002246F0BC00F076BB01231034F8E770B5A6
:1009B00004460D4621461068FFF778FE0246294698
:1009C0002046BDE870400023C6E7D21D22F0070391
:1009D000D3E90023C0E70368126843F020030360F3
:1009E0000823C3610023B7E750DA01002DE9F05F67
:1009F000894604464FF0000ADFF874B1FB44C0F8A2
:100A000020A02046E1688847002874D0252806D019
:100A1000D4E901219047206A401C2062F1E70026BA
:100A20005F462046E16888472028054607DB312DD0
:100A300005D2781910F8200C08B10643F1E7B00789
:100A400001D526F00406C4F81CA00027C4F818A09D
:100A50002A2D09D0284616F03FFB38B304EB87084F
:100A6000303DC8F8185019E059F8041B204604EB33
:100A700087029161E1688847012F054618D1E06936
:100A8000002820DA26F020061DE0D8F8180000EB38
:100A9000800005EB40003038C8F818002046E168B7
:100AA0008847054616F018FB0028EED1012F0AD022
:100AB0002E2D08D12046E16888477F1C0546022F6D
:100AC00046F02006C4DBA069002803DA404246F065
:100AD0000106A061F00701D026F010066C2D0BD0A6
:100AE000682D09D04C2D39D06A2D35D0742D35D0D4
:100AF0007A2D33D016E038E0E1682F46204688474B
:100B0000B842054609D16C2F26D04FF48060E168C9
:100B1000064320468847054604E06C2F1AD04FF460
:100B2000807006430DB3A5F14100192802D8203585
:100B300046F400664A462946204626604E46FFF7A0
:100B40008FFB80B101280BD0F61D26F0070000F1C5
:100B5000080956E74020E4E78020D8E70020D6E7E0
:100B600006F104094DE7284652E7206ABDE8F09FE8
:100B7000E0D901002DE9F04791460F468046044632
:100B8000002614F8015B2DB100F0CEF90068405D3D
:100B9000C007F6D12B2D02D02D2D18D0641E4A4649
:100BA0003946204600F02FFD27B13968A14201D116
:100BB000C7F800804FF0020471050BD540420028B1
:100BC00003DD00F0C5F90460A007BDE8F08746F436
:100BD0008066E4E70028F8DA00F0BAF904606FF004
:100BE0000040F2E70B4910B5A1F17C020A4CC2E9C2
:100BF0003712372106E000EB104342F82130074B53
:100C000000FB03400B1EA1F10101F4DC10BD01202B
:100C1000E8E70000CCA30220E119D666CD0D010063
:100C20002DE9F041074615460E461020FFF7C8FB98
:100C300004000AD06760C4E9026500F085F9016824
:100C4000216004600020BDE8F0810120FBE740EA5C
:100C50000103024630B59B0710D14FF0013400E08C
:100C600008C208C91D1B9D4315EAC41FF8D013F024
:100C7000FF0102F8011B0DD01B0AF8E711F8013B38
:100C8000002B02F8013B05D011F8013B002B02F8C4
:100C9000013BF3D130BD10B5431C02E010F8011B3D
:100CA00071B18107FAD14FF0013202C88C1A8C431E
:100CB00014EAC211F9D0C01A0A0603D0C01E10BD32
:100CC000C01A10BD0A0401D0801E10BD0902FCD05C
:100CD000401E10BD421E12F8013F002BFBD111F83F
:100CE000013B002B02F8013BF9D17047032A40F287
:100CF000308010F0030C00F0158011F8013BBCF1BE
:100D0000020F624498BF11F801CB00F8013B38BFD5
:100D100011F8013BA2F1040298BF00F801CB38BFE3
:100D200000F8013B11F0030300F02580083AC0F001
:100D3000088051F8043B083A51F804CBA0E80810A9
:100D4000F5E7121D5CBF51F8043B40F8043BAFF3DC
:100D50000080D20724BF11F8013B11F801CB48BF36
:100D600011F8012B24BF00F8013B00F801CB48BF6C
:100D700000F8012B704710B5203AC0F00B80B1E8A5
:100D80001850203AA0E81850B1E81850A0E81850C0
:100D9000BFF4F5AF5FEA027C24BFB1E81850A0E8C9
:100DA000185044BF18C918C0BDE810405FEA827CE3
:100DB00024BF51F8043B40F8043B08BF7047D207FA
:100DC00028BF31F8023B48BF11F8012B28BF20F89B
:100DD000023B48BF00F8012B704702F0FF0343EAD3
:100DE000032242EA024200F002B84FF00002042956
:100DF000C0F0128010F0030C00F01B80CCF1040C4A
:100E0000BCF1020F18BF00F8012BA8BF20F8022B7D
:100E1000A1EB0C0100F00DB85FEAC17C24BF00F823
:100E2000012B00F8012B48BF00F8012B70474FF051
:100E3000000200B5134694469646203922BFA0E82A
:100E40000C50A0E80C50B1F12001BFF4F7AF090736
:100E500028BFA0E80C5048BF0CC05DF804EB890027
:100E600028BF40F8042B08BF704748BF20F8022B6A
:100E700011F0804F18BF00F8012B70474FF0013C74
:100E800050F8042B51F8043B9A4221D1A2EB0C03F9
:100E9000934313EACC1317D150F8042B51F8043BB9
:100EA0009A4215D1A2EB0C03934313EACC130BD156
:100EB00050F8042B51F8043B9A4209D1A2EB0C03E1
:100EC000934313EACC13DBD04FF00000704700BF10
:100ED000D01A01BAB1FA81F101F0180122FA01F039
:100EE000CB40C1F12001DBB2C0B2C01A2CFA01F331
:100EF000D11A914311EAC311E6D170477047704788
:100F00007047000070B5064C7C44064D7D4403E0FC
:100F1000206820448047241DAC42F9D170BD0000F8
:100F2000B80102001002020010B500F069FC001DBB
:100F300010BD00BFAD620100004870473CA4022014
:100F40000048704768A40220004870476CA4022043
:100F50000048704734A402207047704770477047BC
:100F600038B504460A4600206946AFF300800028E1
:100F700008BF38BD02460099204600F045FC01201C
:100F800038BD012000F049BDF8B5AFF3008005463B
:100F900000200C46102000BF0646A819A0420DD91B
:100FA000324669460020AFF30080070008BF00F01A
:100FB00034FD0098A04218BF0546C419FFF7BCFFD6
:100FC00005600746F01D20F007004619284600F08E
:100FD0000AF8B44208BFF8BDA21B31463868BDE824
:100FE000F84000F011BC00210160C0E90110704719
:100FF0001020704730B5B0F10A024FEA900E71F13F
:1010000000034EEA817EB0EB0E0061EB91014FEAE6
:10101000101E4EEA017E10EB0E0041EB11114FEA5B
:10102000102E4EEA016E10EB0E0041EB11214FEA3B
:10103000104E4EEA014E10EB0E0041EB11414018EC
:1010400041F100014FEAD00040EA41704FEAD1017E
:1010500010EB80054FEA810444EA907444EB0104EC
:101060006D1944EB0404521BA3414FF0000348BF29
:101070000A3200D530BD401C41F1000130BD10B531
:10108000FFF766FF006810BD10B50446FFF760FF6C
:10109000046010BD2DE9F0470D469946924604467E
:1010A00000F124080168880604D5E06921F01001E8
:1010B000216000E00120A84201DD471B00E000277D
:1010C000A1697A1902EB0900081AA0612078C0060C
:1010D00002D42046FFF7BAFA002608E0D4E901213D
:1010E0001AF806009047206A401C761C20624E4584
:1010F000F4DB2078C0060AD52046FFF7A7FA06E001
:10110000D4E9012130209047206A401C2062381E1B
:10111000A7F10107F4DC07E0D4E9012118F8050084
:101120009047206A401C2062281EA5F10105F3DCCF
:101130002046FFF7A1FA2078000602D50220BDE87C
:10114000F0870120FBE770472DE9FF4F0C461E4654
:101150004FF0FF378BB0D2E90001DDF860800A90D4
:101160008A46C1F30A5505B93D46002108464FF0AD
:101170000000BAF1000F00F4400005DA00EB800037
:101180004FF4400101EA50004FEA9059B9F1010FC4
:1011900000DDB9460A9850EA4A000ED044F61050D5
:1011A000A5F2FF3545432F14B8F1000F1ED075424C
:1011B000291E1EDDC9F100021CE0B8F1010F4FF03D
:1011C000000001D0302103E0F24305E02154401C2F
:1011D000B042FBDB30460022002121540B99C1F8BC
:1011E0000880C1E900200FB0BDE8F08FBD1B6D1C69
:1011F000DEE74A4600DA694206A800F097FB06AB34
:1012000093E8070003AB83E8070050460A9901F012
:10121000C9F98DE80700A0F500501F380090039829
:10122000002D0ADD42F21F014A460844002303A9AB
:101230000390684601F074FC09E0A0F500504A46AE
:101240001F38002303A90390684601F093FC8DE842
:1012500007000004000C03D04FF0FF30410800E00D
:101260001046B8F1000F03D00022009215461EE090
:10127000751E05D4FFF7BEFE303262556D1EF9D5DE
:10128000B3460122084302D000227F1C04E02078EC
:10129000302801D100227F1E002A099784D01DE04A
:1012A000112D07DAFFF7A6FE303262556D1C50EAA9
:1012B0000102F5D1084302D00098C8B10EE0002128
:1012C000681E05E0235C625C63542254401E491C86
:1012D0008142F7DBAB46A81B401E0990002004F8B2
:1012E0000B000B98099AC0F80880C0E9002B7AE738
:1012F00011264FF0000857E72DE9F04F88460446C5
:10130000D21D22F0070191B0D1E90001CDE90A0117
:1013100013F0B8FE02460B98C00F01D02D2007E055
:101320002068810701D52B2002E0202101EAC000BE
:10133000032A099001D0072A05DB034641462046CF
:1013400000F086FA0BE12078800601D5E06900E024
:101350000620B8F1650F814606D0B8F1660F18D0A7
:10136000B8F1670F70D131E00020B9F1110F009092
:1013700001DB112301E009F101030AAA01A90CA86C
:10138000FFF7E2FEDDE90C70002609F10105834656
:1013900047E001204B4600904FF000470AAA01A900
:1013A0000CA8FFF7D1FEDDE90DB00C995D460026D3
:1013B00010B909F101000D18B9EB050003D4C0F113
:1013C000FF3609F10105A5EB09002BE0B9F1010F8A
:1013D00001DA4FF001090020B9F1110F00904846E1
:1013E00001DD112300E003460AAA01A90CA8FFF7BA
:1013F000ABFEDDE90C704D460026834620780007E1
:101400000AD4AB4500DA5D4601A8012D04DD41197F
:1014100011F8011C302907D04F4502DA17F1040FEB
:1014200004DA012082460FE06D1EEEE7002F02DC99
:10143000ED1B3E4403E0781CA84200DD7D1CB81B78
:1014400000F1010A4FF000472078000703D4AA45B5
:1014500001DB4FF0FF3A0021B7F1004F0DF14308D7
:101460008DF8431024D002202B23002F01DA7F4275
:101470002D230A21021EA0F1010000DC5FB197FBC1
:10148000F1FC97FBF1F201FB1C7C17460CF1300CD0
:1014900008F801CDEEE7A8F10100037021880905E5
:1014A00001D5452100E06521A0F1010800F8011CEB
:1014B00009980FA9A1EB0807FF1D00B101204119F0
:1014C00001EBEA70A1693844081A401EA061207837
:1014D000C00602D42046FFF7B9F8099828B1D4E92C
:1014E00001219047206A401C20622078C00622D546
:1014F0002046FFF7ABF81EE0002E04DBB34502DD0B
:1015000001A8805D00E03020D4E901219047206AE5
:10151000401C2062761CAAF101005FEA000A0AD191
:1015200000F06EF9C0680168405CD4E90121904781
:10153000206A401C2062281EA5F10105DCDC07E0C2
:10154000D4E9012118F8010B9047206A401C206261
:10155000381EA7F10107F3DC2046FFF78DF80320C2
:1015600011B041E601694A1C02610878704700B574
:101570008FB0CDE901310021059105497944CDE9CC
:10158000031011466846FFF731FA0FB000BD0000A6
:10159000E5FFFFFF0A6802F8010B0A607047D1E916
:1015A00000239A4202D2531C0B601070704710B592
:1015B000436913B1AFF3008001E0FFF780F8012029
:1015C00010BD127800F124010A7000224A70012235
:1015D000EDE711684FF0FF32E9E710B5436913B149
:1015E000AFF3008001E0FFF7E3F8012010BD12889F
:1015F00000F1240182840022C2840122EDE71168F7
:101600004FF0FF32E9E72DE9F05F824615468B4641
:1016100000270AF10104B9460078302801D09DB1B5
:1016200013E014F8010B0127782803D0582801D0C3
:1016300045B10AE00DB1102D07D1002714F8010BB8
:10164000102502E0082500E00A250026B0460EE03D
:1016500005FB080005FB06F101271FFA80F801EBE6
:101660001046B6F5803F00D3B94614F8010B294661
:1016700000F02EF90028EBDABBF1000F05D00FB116
:10168000641E00E05446CBF80040B9F1000F06D0CC
:10169000FFF75EFC02210160C81EBDE8F09F48EA2A
:1016A0000640FAE70FB4002300B589B00CA90091F9
:1016B0000B99CB60214B7B440693214B7B440793D2
:1016C00004236FF00042CDE901321E4A7A446B4692
:1016D00008920246002016F0E5FC09B05DF814FB04
:1016E00070B506464FF0FF3015460C46324686B0C0
:1016F0000091CDE9010169460020049004A8FFF79C
:10170000D1FF02460498211825B108B1084600E02F
:1017100020462860049800280DD0002A02DD009899
:10172000884208D03246081B69460094CDE901047E
:1017300004A8FFF7B7FF06B070BD00003302000039
:101740004B0200006D0100007CB505460023684691
:10175000CDE90033FFF7C4FF6946284613F0D4FFF4
:101760007CBD70B516460C460546FFF7DDFB0368E9
:1017700093F80101012806D0FF2C0FD8185D68B13D
:1017800001202C7070BDD3F807013246214603F2C8
:10179000071303442846BDE8704018474FF0FF3058
:1017A00070BD2DE9F0410646FFF7CEFB8046454669
:1017B00013E016B1E068B0420ED120682860D4E989
:1017C0000101D8F8007088472046FEF728FED8F8B7
:1017D0000000B842EBD100E025462C68002CE8D18F
:1017E000BDE8F08110B500F01FF9BDE8104000F031
:1017F0000FB900F031B900000048704734A402204E
:101800000048704754A40220034640688C460028D4
:1018100018BF88423CBF03464068F8D31868184494
:10182000884207D00CF1030020F00700001D411A88
:10183000521A0146081D0A60FEF7F1BD10B50446B4
:10184000FFF772FB0068005D00F0010010BD0000B2
:101850002DE9F0411F46044603260168072A01F4DA
:10186000006004DB08B116A505E016A503E008B189
:1018700015A500E015A521F010002060A069C01E8C
:10188000A0610FB1401EA0612046FEF7DFFE4FB100
:10189000D4E9012138469047206A401C2062C01CD0
:1018A000206206E0206AFAE7D4E9012115F8010B6D
:1018B0009047761EF8D22046FEF7DEFEBDE8F081A6
:1018C0004E414E006E616E00494E4600696E6600E4
:1018D0003A2800D2303820F02002412A01D3A2F168
:1018E0003700884201D34FF0FF307047426842B161
:1018F000016811F8013B23B1521EC0E900121846DD
:1019000070470121C160881E704742685AB1C368A0
:10191000016843B983688B4205D0491E521CC0E957
:101920000012002070474FF0FF3070472DE9F0475C
:10193000814616468AB0354878440DC88DE80D00BA
:1019400032487844801C03AC0DC884E80D0041F691
:101950009B300844372190FBF1F290FBF1F5A5F1A3
:10196000800501FB12041B3C02D56442012000E00B
:101970000020DFF898A080460027FA44AAF1BE0AAA
:101980000EE0E0070AD03246684607EB4701012324
:101990000AEB810101F0EEF88DE8070064107F1C6E
:1019A000002CEED1194F7F44AE3F19E0E80715D067
:1019B00007EB04100DF1180A90E80E008AE80E00FB
:1019C000C068F04201D1981908903246012306A957
:1019D00003A801F0CFF803AB83E807006D10641C87
:1019E000002DE3D14FF0010332466946B8F1000FF4
:1019F00003A802D001F094F801E001F0BBF8C9E9B6
:101A00000001C9F808200AB0BDE8F08784CB0100C6
:101A1000002801D000F056B8704710B500F02CFB3C
:101A2000BDE81040FFF7F4BF10B5002102A000F0A0
:101A300009FB012010BD00005349475056464E3A5D
:101A40002050757265207669727475616C20666EBF
:101A50002063616C6C65640010B500F00EF80169DC
:101A600019B100220261884701E08068804700F0D8
:101A7000DEFA000010B500F0DAFA70B500F04EF8AA
:101A800004680546A4B92020FEF79AFC040011D092
:101A9000094900202C60C4E900010849A1602073B5
:101AA000206160610649A06109B100F00DFBE061B1
:101AB000204670BD00F0BBFA00000000751A020855
:101AC0000000000001491820ABBEFEE7260002001E
:101AD00070477546FFF790FEAE46050069465346CF
:101AE00020F00700854618B020B5FEF757FCBDE88A
:101AF00020404FF000064FF000074FF000084FF075
:101B0000000B21F00701AC46ACE8C009ACE8C00905
:101B1000ACE8C009ACE8C0098D4670470048704782
:101B200070A402202DE9FF4F06468BB00878FF28ED
:101B300006D0491C2D2805D000244FF0000908E0EC
:101B400000200CE00124F8E709EB8903491C00EBB5
:101B500043090878FF28F7D114B1C9F10000814684
:101B6000107800252C46AA4629462D2801D02B287E
:101B700004D1521C2D2813D0002082468B461078A9
:101B8000FF280FD04FF0000C0A21521CA5FB017852
:101B900004FB018105FB0C11C5194BEB0104EEE7B9
:101BA0000120EAE7002108464FF00000BAF1000FDB
:101BB00002D000EB80004008C0F38157012F01DD07
:101BC0004FF0FF370E9955EA040009EB01080BD0DE
:101BD0004FF0020918F5FA7F16DA4FEACA70002FA3
:101BE000706008DD012007E04FEACA70C6E900B066
:101BF0000FB0BDE8F08F00203060FFF7A9F9C0F802
:101C000000901821084616E0B8F5FA7F18DD002F7D
:101C100002DAF748784401E0F6487844D0E9001049
:101C2000C6E9001040EACA707060FFF791F9C0F889
:101C30000090142108460FB0BDE8F04F16F090B99F
:101C4000002108464FF00000B8F10001099002DAC7
:101C5000C7F1000200E03A4601DAC8F1000106A827
:101C6000FFF764FE06AB93E8070003AB83E80700C9
:101C700044F23E005BEA04010090584604D144F26D
:101C80001E012C465D460091210C0904014306D13A
:101C90000099240444EA15442D041039009104F0FD
:101CA0007F41014306D10099240244EA15642D02C4
:101CB0000839009104F07041014306D100992401D4
:101CC00044EA15742D01091F009104F040410143BD
:101CD00006D10099A40044EA9574AD00891E0091D4
:101CE00004F00041084304D100986D196441401E7E
:101CF00000904FF001033A466846B8F1000FCDE975
:101D0000014503A902DD00F04AFF01E000F01DFFDC
:101D1000BAF1000F04460D4601D084F000440021C2
:101D200008464FF00000099940F2FF77484010F054
:101D30000C0F07D124F00040284303D0C4F30A500D
:101D4000B84212D1FFF704F9C0F80090C4F30A506A
:101D5000B8420AD1A8487844D0E90010C6E900107A
:101D600004F000410843706042E7C6E900543FE7D1
:101D70002DE9FF4F1F464FF0000A4FF0FF38454650
:101D800091B0D7E90146CDF83CA0FFF739FDC06816
:101D90000168405C1090B96912986D1C8847396AD7
:101DA000814688470028F6D1B9F1FF3F0AD0002EBE
:101DB00024F4D06411DDB9F12B0F08D0B9F12D0F47
:101DC0000BD102E0404615B013E744F48064B969D2
:101DD00012986D1C8847761E8146600504A901D5BE
:101DE0002D2000E02B20002E01F1010B0DF1300819
:101DF0008DF810003FDDB9F1690F08D0B9F1490F36
:101E000005D0B9F16E0F02D0B9F14E0F1CD13B468F
:101E100001A8009580E85002DDE912126FF002007F
:101E200016F044F9C11CCED10EE0B96912986D1CB0
:101E3000884781461398761E44F4007405600F9815
:101E4000401C002E0F9016DDB9F1300FEDD0B9F126
:101E5000780F02D0B9F1580F0DD10F9801280AD18F
:101E60003B46CDE90054DDE91212001F029616F040
:101E70001BF9C11CA7D1109989453ED144F08004BB
:101E800006E01399681CAAF1010A44F40074086082
:101E9000B9696D1C1298761E884730288146F0D0AB
:101EA0002BE01099894505D1200603D4761E44F015
:101EB000800418E0484615F00FF908B3761E0DF1BE
:101EC00023018B4544F4007408D2A9F130000BF8CB
:101ED000010B200607D5AAF1010003E0200602D479
:101EE0000AF101008246A00502D51399681C08601A
:101EF000B96912986D1C88478146002ED1DC53E0E9
:101F0000002E51DDB9F1650F02D0B9F1450F4BD16B
:101F1000A00549D5B9696D1C1298761E24F4407449
:101F20008847002E81460CDD2B2804D0B9F12D0FF7
:101F300007D144F48074B96912986D1C8847761EE5
:101F40008146E00501D52D2100E02B2108F8011B79
:101F5000CDF8008021E0761E0DF13901884544F46A
:101F600000740CD2A9F1300010F0FF0088F80000D6
:101F700002D10099884509D908F1010806E0E00579
:101F800001D51E4801E042F20F708246B9691298ED
:101F90006D1C8847814613980560002E04DD484675
:101FA00015F09AF80028D6D1F96912988847FF20D1
:101FB00053468BF8000088F8000000200A900B9030
:101FC00004AA0CA90AA8FFF7ADFDA00502D46FF082
:101FD0000100F8E614F0240F12D0E0071CD1386895
:101FE000DDE90A12031D3B600068C0E9001213E03E
:101FF00078F301006AF301002EF20100F1D8FFFF2F
:102000000AA9684613F080FBE00705D13868009AFA
:10201000011D3960006802602846D4E610B5044608
:10202000AFF300802046BDE81040FEF789B910B537
:10203000002000F06EF8FEF775F9BDE810400120B1
:10204000FFF740BD70B505460C460A2000E06D1C48
:1020500000F058F835B128780028F8D102E0641C67
:1020600000F050F814B120780028F8D1BDE8704095
:102070000A2000F047B8000010B5012805D0002163
:1020800003A0FFF7DFFF012010BD09A1F8E7000062
:1020900053494752544D454D3A204F7574206F6651
:1020A0002068656170206D656D6F727900000000B9
:1020B0003A2048656170206D656D6F727920636F9D
:1020C000727275707465640010B58820FEF778F937
:1020D000002801D00021017010BD802902D808B16C
:1020E000017809B100207047012100F8081B7047F2
:1020F00018B100F10802914201D000207047002180
:102100000170704708B569468DF800000320ABBE2A
:1021100008BD10B500F02EFABDE81040FFF778BCFE
:102120002DE9FF4F1F464FF03C0987B04FF00042AA
:10213000DDE9141001F10108DDF858A002EA405071
:102140000390002005908346054604460490B96933
:10215000461E08988847AAF1010A0290BAF1000FBA
:102160003BDD02982E2815D01021FFF7B1FB002887
:102170002EDB4FF0010B0599014317D0B9F1000F89
:102180000BDB4A46C117FEF7E8F905430C43A9F1FA
:10219000040905E0012004900BE008B145F00105B9
:1021A00001200590049820B9361D02E0049800B182
:1021B000361FB969089808F101088847BBF1000F7C
:1021C000AAF1010A0290C9D00999C1F80080C5E7B7
:1021D0000298702808D0502806D0F96908988847D6
:1021E000BBF1000F14D04FE0002002900120BBF1A2
:1021F000000F049009D0B969089808F101088847D0
:10220000AAF10109B9F1000F07DCF96908988847BC
:102210006FF001000BB0BDE8F08F2B2804D02D2803
:102220000CD14FF0FF300490B969089808F101080B
:102230008847A9F10109B9F1000FE6DD411CE4D09E
:102240000A21FFF745FB0028DFDB029908F10108AE
:1022500001EB810100EB41000290B96908988847C1
:102260000A21FFF735FB099AA9F10109B9F1000F1D
:10227000C2F8008001DD0028E7DAF969089888478C
:102280000499029800FB016655EA040004D004F0AA
:102290004041090002D006E0039898E0A40044EA17
:1022A0009574AD00B61E04F00041080002D16D190E
:1022B0006441761E159810F0240F03D04FF00B09DF
:1022C0005C4803E04FF028096FF07D0082465645D8
:1022D00007DAAAEB06018944B9F1410F01DD4FF09D
:1022E000410901200021A9F10102FEF736F9024659
:1022F00028400B462140084301D0012100E0002185
:10230000501E029143F1FF3128402140084301D083
:10231000012000E000200299834651EA0B014FD0D2
:10232000002108464FF00000039900F4400039B145
:1023300000EB80004FF4400100EBD07001EA600038
:102340008015012802DD4FF0FF3000E013D0401C63
:1023500036D0029860B3BBF1000F0CD14A46012081
:102360000021FEF7FAF828402140084301D001205F
:1023700000E00020E0B101204A460021FEF7EDF820
:10238000034640190A4661412D1A8C4111D3B9F117
:10239000400F09DD159810F0240F02D0AAF1340681
:1023A00003E0AAF1170600E0761C00254FF0004478
:1023B00006E05B1E42F1FF3220EA030521EA020437
:1023C000CAF10100B04206DA1B49039808430190A4
:1023D000002000900EE0039AC4F3D321E80A0A43D8
:1023E000164940EA44500A433146CDE900026846A6
:1023F00014F068FE159810F0240F0BD01598C00744
:1024000015D13868DDE90012031D3B600068C0E9A2
:1024100000120CE002A8694613F076F91598C0077F
:1024200005D13868029A011D396000680260404693
:10243000F0E6000002FCFFFF0000F07F0000F03F2C
:102440002DE9FF4F92461D4685B04FF00041DDE972
:10245000124BDDE914727F1E01EA4B50414940F0F6
:10246000FF4940EA0108002122F020004928049198
:1024700002D04E2828D04CE03BA0012607C88DE8AA
:102480000700A9690698641C88477F1E014606D488
:102490001DF8060018B121F0200181420BD0E96936
:1024A00006988847032E34D0082E32D06FF00100F2
:1024B00009B0BDE8F08F761C032E01D0082EE0D1C4
:1024C000601CCAF80000DCE7A9690698641C88470C
:1024D0007F1E2AD420F02000412826D1A969069821
:1024E000641C88477F1E20D420F020004E281CD179
:1024F000A9690698641C88477F1E48F4002849F49F
:102500008009CAF8004001D4282806D0E969069855
:1025100088475FEACB7012D022E0A9690698641C54
:1025200088477F1E01D4002803DAE96906988847A6
:10253000BCE72928F1D1641CCAF80040E9E71BF088
:10254000240F07D028680499031D2B600068C0E998
:10255000001805E02868021D2A600068C0F8009095
:102560002046A5E70000F07F494E46494E495459A0
:102570000000000010B5002102A0FFF763FD01205C
:1025800010BD0000534947414252543A2041626E07
:102590006F726D616C207465726D696E6174696FC4
:1025A0006E0000005FEA400C08BF91F0000F4FEA98
:1025B0008C234FEAC12243EA51514FEA1C5018BF05
:1025C00000F5F0404FEA300018BF41F000415FEAEB
:1025D0006C5C00F02980BCF1FF3F08BF40F08040F8
:1025E0007047130C06BF12044FF0100C4FF0000C94
:1025F000130E04BF12020CF1080C130F04BF1201DA
:102600000CF1040C930F04BF92000CF1020CD30FD9
:1026100004BF52000CF1010C11464FF00002A0F172
:102620001F00A0EB0C00704711F0004F08BF70476F
:1026300031F000413FF4D5AF0B0C06BF09044FF059
:10264000100C4FF0000C0B0E04BF09020CF1080C2B
:102650000B0F04BF09010CF1040C8B0F04BF8900A0
:102660000CF1020CCB0F04BF49000CF1010CCCF1B2
:102670002003A0EB0C0022FA03F302FA0CF241EA69
:10268000030100F10100704720F07F4C80EA030055
:1026900023F07F47ACEB070303F57C5300F00040C9
:1026A00003F1FF032DE980494FEA154B09B44FEAC6
:1026B000144325EA0B4E24EA03480FF2042606EBE6
:1026C000132749083E785FEA320203FB0667C7F525
:1026D000000707FB06F64FEA54374FEAD64606F1E5
:1026E000020607FB066CCCF1005C4FEA1C472CEAA3
:1026F000074C07FB06F40CFB06F504EB15464FEA06
:10270000961634BF00204FF000404FEAD13706FB49
:1027100007FC4FEA1C4C0CFB0BF7D21B03FB0CF71E
:1027200061EB07010CFB0EF7B0EB074072EB1742B1
:102730000CFB08F734BFA2EB0742B2EB074261EB98
:1027400017414FEA0C444FEA910706FB07FC4FEA9A
:102750001C4C0CFB0BF7B0EBC74072EB573203FB82
:102760000CF734BFA2EBC742B2EBC74261EB573163
:102770000CFB0EF7B0EBC70072EB57720CFB08F7BF
:1027800034BFA2EBC702B2EBC70261EB5771039FE4
:102790004FEA816141EA921104EBCC044FEAD13750
:1027A0004FEA826206FB07FC42EA90124FEA806021
:1027B0004FEA1C4C0CFB0BF7D21B03FB0CF761EB35
:1027C00007010CFB0EF7B0EB074072EB17420CFB56
:1027D00008F734BFA2EB0742B2EB074261EB1741A7
:1027E0004FEA8C554FEA910704EB9C2406FB07FC4B
:1027F0004FEA1C4C0CFB0BF7B0EBC74072EB5732A7
:1028000003FB0CF734BFA2EBC742B2EBC74261EB4C
:1028100057310CFB0EF7B0EBC70072EB57720CFB95
:1028200008F734BFA2EBC702B2EBC70261EB5771E6
:1028300015EB4C254FEA816141EA92114FEA826221
:102840004FEAD13742EA901206FB07FC44F100043C
:102850004FEA80604FEA1C4C0CFB0BF7D21B03FBCA
:102860000CF761EB07010CFB0EF7B0EB074072EBC6
:1028700017420CFB08F734BFA2EB0742B2EB07424A
:1028800061EB174115EB1C154FEA813141EA92418A
:102890004FEA823242EA90424FEA80304FEA0C76A9
:1028A00044F1000448EA03434EEA0B484FF0000E9F
:1028B000B2EB080C71EB030724BF624639464EEBBE
:1028C0000E0E4FF0000B0018524149414BEB0B0B21
:1028D000B2EB080C71EB03077BF1000B24BF6246DF
:1028E00039464EEB0E0E4FF0000B00185241494195
:1028F0004BEB0B0BB2EB080C71EB03077BF1000BFE
:1029000024BF624639464EEB0E0E51EA020718BF4D
:1029100046F0010616EB0E7655F1000254F1000167
:1029200003D5BDE88901BDE80088BDE88901BDE89F
:102930000048B619524141EB0101A3F10103704770
:1029400080807F7E7D7C7B7A7978777676757473EC
:10295000727171706F6E6E6D6C6C6B6A6A696868AB
:10296000676666656464636362616160605F5F5E41
:102970005E5D5D5C5C5B5B5A5A59595858575756B7
:10298000565555555454535352525251515050501C
:102990004F4F4F4E4E4D4D4D4C4C4C4B4B4B4A4A6E
:1029A0004A494949484848474747474646464545B2
:1029B00045444444444343434342424242414141EB
:1029C00046EA0646A3F570534FEA164646EA4256D3
:1029D0004FEAD22242EA415210B54FEAD121A3F187
:1029E000010300F02FF820F0004000F1020C00F08D
:1029F000004701EB00501146BCF5006F40EA0700AC
:102A000000D210BDBAF1000F0AD01CB503B44FF0CC
:102A100004004FF004014FF000000FBCBDE810406F
:102A20004FF00001BBF1010FB9BF04484FF0FF3177
:102A30000348002140EA070010BD00BFFFFFEF7F01
:102A40000000F07F002B9C4630D477002BD01CB5C3
:102A50004FEA370703B44FF010004FF01001BAF1FE
:102A6000000F06D0BCF1000FDCBF40F0080040F0C2
:102A700008014FF000000FBCBDE810400BF1010B46
:102A8000BBF1010F08BF5FEA170722BF12F1010275
:102A900011F101014FF0004143F1000300F000404B
:102AA00043EA00007047F9D35708D0E746EA0646E4
:102AB00013F1400F4FEA16461FDD13F1200FDFBF61
:102AC00016430A46002120335B42BED0C3F12007E3
:102AD00046EA064602FA07F74FEA164646EA0706AE
:102AE000C3F1200722FA03F201FA07F721FA03F1F2
:102AF0004FF0000342EA0702A7E746EA020646EA69
:102B000006464FEA164646EA0106BCBF46EA0646B6
:102B1000360C4FF000034FF000024FF0000194E735
:102B20002DE9804C9A46934670B491E8380007C866
:102B300031EA400C48BF34EA430C03D5FFF7A4FD4B
:102B4000FFF780FFF0BCBDE8008C2DE9804C9A4671
:102B5000934670B491E8380007C831EA400C48BF8A
:102B600034EA430C03D5FFF78FFDFFF729FFF0BCD4
:102B7000BDE8008C2DE9804C9A46934670B491E8EC
:102B8000380007C810F0804F08BF13F0804F03D102
:102B900000F01AF8FFF756FFF0BCBDE8008C2DE9F5
:102BA000804C9A46934670B491E8380007C810F0FC
:102BB000804F08BF13F0804F03D100F005F8FFF7F6
:102BC000FFFEF0BCBDE8008C20F07F4780EA0300E8
:102BD00023F07F4C07EB0C03A3F57C5300F000407F
:102BE000A3F1FE0392F0000F00F0B38095F0000F08
:102BF00000F077802DE901494FEA11404FEA144671
:102C000021EA004800FB06FC24EA064708FB06F61A
:102C100007FB08F800FB07F718EB06484CEB164CCF
:102C20004FEA124B18EB07484FEA15464CEB17409A
:102C300022EA0B4E0BFB06FC25EA06470EFB06F6C6
:102C400007FB0EFE0BFB07F71EEB064E4CEB164C7C
:102C50004FF000061EEB074E4CEB174B18EB0B0822
:102C600040F1000018EB0E0B58EB000840F100009B
:102C70008F1A4FF000013CBFC943661B14BFB5EB70
:102C8000040C00213CBFC943F61B4FEA17444EEA2F
:102C90008E0E27EA04454FEA1C4704FB07622CEA24
:102CA000074C05FB07F70CFB05F604FB0CFC16EBC9
:102CB000074642EB174216EB0C4642EB1C421BEB5D
:102CC000060658EB0202414146EA9E0601D5BDE8E0
:102CD0000189B619524141EB0101A3F10103BDE89D
:102CE00001894FEA14454FEA114724EA054621EAD3
:102CF000074C05FB07F406FB07F70CFB06F105FB89
:102D00000CFC11EB074144EB17444FEA124711EB5F
:102D10000C4144EB1C4422EA074C05FB07F206FB7E
:102D200007F70CFB06F605FB0CFC16EB074642EB1F
:102D3000174216EB0C4642EB1C456A1854F1000191
:102D400048BF7047B619524141EB0101A3F101039D
:102D5000704795F0000F37D04FEA11424FEA144701
:102D600021EA024624EA074C02FB07F106FB07F7BB
:102D70000CFB06F402FB0CFC14EB074441EB17417F
:102D80004FEA154714EB0C4441EB1C4125EA074C74
:102D900002FB07F506FB07F70CFB06F602FB0CFC33
:102DA00016EB074645EB174516EB0C4645EB1C4268
:102DB000121951F1000148BF7047B619524141EB59
:102DC0000101A3F1010370474FEA14454FEA11478F
:102DD00024EA054621EA074C05FB07F106FB07F745
:102DE0000CFB06F24FF0000605FB0CFC12EB074251
:102DF00041EB174112EB0C4251EB1C4148BF7047AD
:102E0000921841EB0101A3F10103704710B504468C
:102E100002A120460DF066F910BD00000000000080
:102E200010B50446302120460AF034FF10BD0000E2
:102E30000A4A0BA1002008F057FE0C4803680C4812
:102E40000CA10268002008F04FFE0C4810F0FAF9BF
:102E50000DF0A2F80DF092FE00BFFEE7CB81030853
:102E6000257320656E7465720000000088A2022040
:102E700060A202202573203A20256400E60000208D
:102E800010B50A4A0AA1002008F02EFE0B4803687C
:102E90000B480CA10268002008F026FE0B4810F039
:102EA000D1F90DF079F80DF069FE10BD0382030829
:102EB000257320656E7465720000000088A20220F0
:102EC00060A202202573203A20256400E60000203D
:102ED00010B5002201B909E0012901D10A0205E07B
:102EE000022901D10A0201E04FF440720B2800D9F7
:102EF000001D0E4B1B6823F440730C4C23602346CB
:102F00001B681343236023461B6823F0F8032360E8
:102F100023461B68022444EAC0042343034C236075
:102F200023461B6843F48033236010BD103C0240ED
:102F30001C48006800F40070B0B11A48006820F422
:102F400000701849086000BF0846006840F400603F
:102F500008600846006820F40060086000BF08466A
:102F6000006840F4007008600E48006800F480605B
:102F7000B0B10C48006820F480600A49086000BFC6
:102F80000846006840F4805008600846006820F455
:102F90008050086000BF0846006840F48060086008
:102FA00070470000003C024070B504460025002038
:102FB0001449C86100F038FC054609E0601C38B1CE
:102FC00024B100F031FC401BA04201D9032070BDA8
:102FD0000D48006800F480300028EFD10A480068EE
:102FE00000F0010010B101200749086006480068A0
:102FF00000F4F97018B103F07DFE0120E7E700202E
:10300000E5E70000001800200C3C024070B50446C3
:103010001D460023B5F5804F13D154F822300C48DB
:103020000340D1E9000640EA06108E6840EA062017
:103030008E8940EA06408E693043034344F82230CB
:1030400003E06FF0704044F82200002070BD0000E3
:103050000000F0CF10B502460023086852F8203077
:1030600018480340D1E901042043CC6820430C698F
:1030700020434C6920438C692043CC6920430C6A6F
:1030800020434C6A20438C6A2043CC6A2043CC6B9B
:1030900020430C6B20434C6B204303438868082873
:1030A00001D143F04003086842F82030486BB0F586
:1030B000801F05D1086818B110684C6B2043106060
:1030C000002010BD8000E0FF30B50346144600220A
:1030D000601C53F8202002F04042D1E9000540EA8C
:1030E00005108D6840EA05208D8940EA0545088A6B
:1030F000401E45EA0055087D801E45EA00608D6946
:1031000028430243601C43F82020186800F4801014
:1031100038B1586820F47002088A401E42EA005212
:103120005A60002030BD10B504460CB9012010BD16
:10313000607920B900202071204600F006F80220B6
:103140006071012060710020F1E7704730B50246E0
:103150000B4602F1180000EB031100245068B0F593
:10316000403F02D0506800B100BF00BF92F8380065
:10317000012801D1022030BD012082F8380000BFB3
:10318000022082F8390048680A2802D048680928D5
:1031900009D10D89486840EA0540CD6805F07F45B2
:1031A00040EA050406E00D89486840EA05400D7BC9
:1031B00040EA0564ABB91068406A194D28402043C5
:1031C0001568686208681568A86148680A2802D00E
:1031D000486809281AD1C86820F07F401568A8629D
:1031E00014E01068C0690E4D284020431568E8615E
:1031F00008681568286148680A2802D048680928C4
:1032000004D1C86820F07F4015682862012082F848
:10321000390000BF002082F8380000BF00BFAAE7D5
:10322000F0FFFC0010B504460CB9012010BD94F865
:10323000390028B9002084F83800204600F022F830
:10324000022084F839002068006820F4403061686A
:103250000843216808602068406B20F00700A168DF
:103260000843216848632068006C6FF30D00E16833
:103270000843216808640020E063012084F83900D5
:103280000020D3E77047F8B504460D46002600201D
:1032900000902068006800F00100002843D000F092
:1032A000C3FA064639E0206840680090009800F0B4
:1032B0002100E0B1009800F0200018B1E06B40F070
:1032C0000200E063009800F0010018B1E06B40F0EC
:1032D0000100E063212021688860042084F839001F
:1032E00000BF002084F8380000BF0120F8BD681C32
:1032F00098B125B100F098FA801BA8420DD9E06B77
:1033000040F02000E063032084F8390000BF002073
:1033100084F8380000BF0320E8E72068406800F028
:1033200002000028BFD02068C06900F0200028B942
:103330002068406A00F0200000284BD000F074FAAA
:10334000064641E0206840680090009800F029009F
:1033500020B3009800F0080018B1E06B40F00400C2
:10336000E063009800F0200018B1E06B40F002002C
:10337000E063009800F0010018B1E06B40F001003C
:10338000E063292021688860042084F8390000BFA8
:10339000002084F8380000BF0120A7E7681C98B11E
:1033A00025B100F041FA801BA8420DD9E06B40F036
:1033B0002000E063032084F8390000BF002084F877
:1033C000380000BF032091E72068406800F010003B
:1033D0000028B7D0122021688860012084F83900C5
:1033E00000BF002084F8380000BF00BF7EE72DE951
:1033F000F84304460D4616461F46DDF8208000BF00
:1034000094F83800012802D10220BDE8F883012099
:1034100084F8380000BF022084F839003B46324669
:1034200029462046CDF8008003F0FDF920680068A9
:1034300040F00100216808600020E6E770B504460E
:1034400000F0F2F906462546681C10B104480078E1
:10345000054400BF00F0E8F9801BA842FAD370BD14
:10346000080000202DE9F04104460E460127002502
:1034700000BF2648007E012802D10220BDE8F0816D
:1034800001202249087600BF4CF25030FFF78CFD36
:103490000746002F32D1401E30602068012810D12D
:1034A000207C616803F038FA4CF25030FFF77CFD65
:1034B00007461748006848F2040188431449086029
:1034C0001AE0A56812E0217C2846FFF701FD4CF2C6
:1034D0005030FFF769FD07460D48006820F0FA00FC
:1034E0000B4908600FB1356005E06D1CD4E902108E
:1034F0000844A842E7D800BFFFF71AFD00BF00202C
:103500000249087600BF3846B8E7000000180020DE
:10351000103C02400348006840F000400149086048
:1035200000207047103C02402DE9F04106460F464E
:1035300014461D464FF0010800BF1F48007E0128B9
:1035400002D10220BDE8F08101201B49087600BFAE
:103550004CF25030FFF728FD8046B8F1000F23D120
:1035600026B9E1B2384603F09FFB12E0012E04D1E8
:10357000A1B2384603F0B0FF0BE0022E04D1214681
:10358000384603F0A3FB04E022462B46384604F0FD
:1035900011F84CF25030FFF707FD804607480068ED
:1035A00020F001000549086000BF002002490876AC
:1035B00000BF4046C6E7000000180020103C024053
:1035C00000200949096801F0004159B10749064A3C
:1035D0000C3A1160064911600349096801F0004185
:1035E00001B1012070470000103C024023016745F3
:1035F000AB89EFCDF8B502460B460025002400202C
:103600000021E5E0012606FA01F51E6806EA050438
:10361000AC4272D15E68022E02D05E68122E13D1C7
:10362000CF0802F1200656F827004E07F70E0F26A6
:10363000BE40B0434F07FF0E1E69BE403043CF0867
:1036400002F1200646F8270010684F000326BE400E
:10365000B0431E7906F003064F00BE4030431060B1
:103660005E68012E08D05E68022E05D05E68112EBD
:1036700002D05E68122E13D190684F000326BE4020
:10368000B0434F00DE68BE40304390605068012672
:103690008E40B0431E79C6F300168E403043506012
:1036A000D0684F000326BE40B0434F009E68BE4026
:1036B0003043D0605E6806F08056B6F1805FA8D1D6
:1036C00000BF00260096444E366846F48046424FBE
:1036D0003E603E46366806F48046009600BF3F4E88
:1036E0008F0856F827008E07370F0F26BE40B043CD
:1036F0003B4EB24202D100262EE068E0394EB24283
:1037000001D1012628E0384EB24201D1022623E041
:10371000364EB24201D103261EE0354EB24201D1EF
:10372000042619E0334EB24201D1052614E0324E90
:10373000B24201D106260FE0304EB24201D1072637
:103740000AE02F4EB24201D1082605E02D4EB242CA
:1037500001D1092600E00A268F073F0FBE40304303
:103760001E4E8F0846F82700274E3068A0435E683B
:1037700006F48036B6F5803F00D12043224E3060FB
:10378000361D3068A0435E6806F40036B6F5003F8B
:1037900000D120431C4E361D3060361D3068A043DA
:1037A0005E6806F48016B6F5801F00D12043164EE1
:1037B00008363060361D3068A0435E6806F4001697
:1037C000B6F5001F00D120430F4E0C363060491C67
:1037D0001029FFF417AFF8BD443802400838014003
:1037E000000002400004024000080240000C0240B9
:1037F000001002400014024000180240001C024069
:103800000020024000240240003C014002461369AF
:103810000B400BB1012000E0002070470AB181612C
:1038200001E00B04836170470148006870470000A5
:103830000000002003480068034909780844014952
:1038400008607047000000200800002010B50D48F7
:10385000006840F400700B4908600846006840F4B6
:10386000806008600846006840F4807008600320AB
:1038700000F0BCF90F2000F007F800F06AF9002012
:1038800010BD0000003C024070B504460E480078B0
:103890004FF47A71B1FBF0F00C490968B1FBF0F517
:1038A000284601F0A2FA08B1012070BD102C07D201
:1038B00000222146501E00F05AF90548046001E03C
:1038C0000120F2E70020F0E70800002018000020A7
:1038D00004000020F0B5044615460026002200270B
:1038E00000BF94F8A000012801D10220F0BD012002
:1038F00084F8A00000BF022084F8A100002237E075
:1039000003EB830000EBC30C04F1380000EB8C00E8
:103910000069062813D108784FF0100C0CFB022C1C
:1039200040EA0C60B1F800C00CF47F4C40EA0C0097
:10393000D1F800C00CF47F0C40EA0C060EE00878C9
:1039400040EA0260B1F800C00CF47F4C40EA0C0081
:10395000D1F800C00CF47F0C40EA0C060F1D39466C
:10396000206884304FF0800C0CFB03000664521C6E
:10397000AA42C5D3012084F8A10000BF002084F82A
:10398000A00000BF00BFB1E770B504460E46154663
:1039900000BF94F8A000012801D1022070BD0120D1
:1039A00084F8A00000BF022084F8A10005EB850187
:1039B00001EBC50204F1380101EB820034223146EB
:1039C000FDF7D9F92A463146204602F0A2FD012032
:1039D0002168486284F8A10000BF002084F8A0009C
:1039E00000BF00BFDAE710B5024600BF92F8A000A2
:1039F000012801D1022010BD012082F8A00000BFE3
:103A0000022082F8A10010688430CB01C05840F039
:103A1000100310688430CC010351012013685862F0
:103A200082F8A10000BF002082F8A00000BF00BF04
:103A3000E1E7000070B50446002500260CB901201E
:103A400070BD94F8A10028B9002084F8A000204699
:103A500000F07EF8022084F8A1002068806920F040
:103A6000704021688861D4E901010843E168084396
:103A700021690843216889690843216888612068B1
:103A800080683249084021688860A08A050420685F
:103A90008068A16929430843216888602068C0685C
:103AA0002A4908402168C860A08B05042068C068C6
:103AB000216A294308432168C860206800692349B6
:103AC000084021680861A08C050420680069A16A8B
:103AD0002943084321680861206840691B49084060
:103AE00021684861A08D050420684069216B294345
:103AF00008432168486194F83500050294F83600BF
:103B000006042068C06A00F07F402168C86246EA67
:103B1000050094F8341008432168C96A08432168F5
:103B2000C8622068406B40F0060021684863206846
:103B3000806940F00100216888610020C4F8A40079
:103B4000012084F8A10000207AE7000000F800F0CE
:103B50007047704700BF00F01F02012191404209E9
:103B6000920002F1E022C2F8001100BF70472DE977
:103B7000F05F80460D461646002703F03DFD0746E0
:103B800039462A46334601F00700C0F1070ABAF168
:103B9000040F02D94FF0040A01E0C0F1070AD14630
:103BA00000F1040ABAF1070F02D24FF0000A01E057
:103BB000A0F1030AD4464FF0010A0AFA09FAAAF161
:103BC000010A0AEA020A0AFA0CFA4FF0010B0BFA90
:103BD0000CFBABF1010B0BEA030B4AEA0B04214689
:103BE000404602F049FFBDE8F09F000000BF00F032
:103BF0000702064B19684FF6FF031940044B0B43AD
:103C000043EA0221014B196000BF70470CED00E050
:103C10000000FA0538B5002400BF002000901D48C0
:103C2000006840F080501B4908600846006800F0BA
:103C30008050009000BF012017490864FFF7F4FD91
:103C4000044607E0FFF7F0FD001BB0F57A7F01D9CD
:103C5000032038BD1148406800F48030B0F5803F43
:103C6000F0D101200C494864FFF7DEFD044607E06F
:103C7000FFF7DAFD001BB0F57A7F01D90320E8E7F2
:103C80000648406800F40030B0F5003FF0D1002055
:103C9000DFE700004038024000000E4200700040A4
:103CA000F8B5044600250026207800F0010020B970
:103CB000207800F00200022852D10020A84988662E
:103CC000FFF7B2FD054606E0FFF7AEFD401B0228F8
:103CD00001D90320F8BDA3480068C0F3C0600028E4
:103CE000F2D1207800F0010038B160688101207ABB
:103CF00041EA00709B4984310860207800F002009E
:103D0000022819D1974884300068C0F302766068B1
:103D10008101207B41EA006040EA067091498431CC
:103D2000086090488C30006820F01F00E169491E4F
:103D300008438C498C310860012089498866FFF767
:103D400073FD054606E0FFF76FFD401B022801D911
:103D50000320BFE783480068C0F3C0600028F2D0AA
:103D6000207800F00400042804D0207800F0080037
:103D7000082863D100207A490867FFF755FD0546FA
:103D800006E0FFF751FD401B022801D90320A1E7FF
:103D900074480068C0F340700028F2D1207800F029
:103DA0000400042819D16F4888300068C0F30276F7
:103DB00020698101207D41EA006040EA067069497E
:103DC00088310860081D006820F4F851206A401E00
:103DD00041EA002063498C310860207800F0080037
:103DE000082817D15F4888300068C0F3036620694F
:103DF000800140EA0661207E41EA0070594988311D
:103E00000860081D006820F44030616A0843554985
:103E10008C310860012052490867FFF705FD05460F
:103E200006E0FFF701FD401B022801D9032051E7FE
:103E30004C480068C0F340700028F2D0207800F0B1
:103E4000200020287ED100BF00200090454840304F
:103E5000006840F0805043494031086008460068DF
:103E600000F08050009000BF3F48006840F4807030
:103E70003D490860FFF7D8FC054606E0FFF7D4FC93
:103E8000401B022801D9032024E73748006800F4CA
:103E900080700028F2D033487030006800F440761B
:103EA0004EB3208D00F44070B04224D02D487030C5
:103EB000006820F4407601202C490860002008604A
:103EC000284870300660006800F0010098B1FFF7E4
:103ED000ABFC054608E0FFF7A7FC401B41F2883128
:103EE000884201D90320F5E61E4870300068C0F30F
:103EF00040000028EFD000BF208D00F44070B0F5E6
:103F0000407F0CD117480830006820F4F810184A98
:103F1000A16A1140084313490831086007E01148BD
:103F20000830006820F4F8100E49083108600D4888
:103F300070300068218DC1F30B01084309497031CD
:103F4000086000E000E000BF207800F010001028BA
:103F500003D194F82C00074908600020BAE600005D
:103F6000000047420038024000700040400E4742C7
:103F7000FFFCFF0FE011474270B504460D460CB937
:103F8000012070BD5848006800F00F00A84209D217
:103F900055490D700846006800F00F00A84201D096
:103FA0000120EEE7207800F0020002281DD12078E1
:103FB00000F00400042805D14C48006840F4E050AB
:103FC0004A490860207800F00800082805D14748D1
:103FD000006840F46040454908604448006820F0AB
:103FE000F000A168084341490860207800F0010012
:103FF000A8B36068012807D13C4808380068C0F3BE
:104000004040B8B90120BCE76068022802D060686F
:10401000032807D1354808380068C0F3406048B924
:104020000120AEE7314808380068C0F3400008B905
:104030000120A6E72D48006820F0030061680843CE
:104040002A490860FFF7F0FB064609E0FFF7ECFBA2
:10405000801B41F28831884202D9032091E707E0B2
:104060002248006800F00C006168B0EB810FEDD1D0
:104070001D48006800F00F00A84209D91A490D70C8
:104080000846006800F00F00A84201D0012078E740
:10409000207800F00400042807D11448006820F4B8
:1040A000E050E168084311490860207800F00800FA
:1040B000082808D10D48006820F46040216940EAD2
:1040C000C1000A49086000F01DF808490968C1F3F9
:1040D0000311074A515CC840064908600F20FFF7EA
:1040E000D3FB00204DE70000003C024008380240AE
:1040F000EC800308180000200148006870470000A9
:10410000180000202DE9F047002400250026A146D4
:104110002548006800F00C0020B1042805D00828CC
:104120003AD105E0DFF8849039E0DFF8849036E09A
:104130001D48001F006800F03F041B48001F006876
:1041400000F4800078B11A481749091F0968C1F3C3
:104150008811A0FB01700146224600233846FCF777
:1041600085F905460EE011480F49091F0968C1F39A
:104170008811A0FB01700146224600233846FCF757
:1041800075F905460848001F0068C0F30140401C4F
:104190004600B5FBF6F902E0DFF8109000BF00BF63
:1041A0004846BDE8F0870000083802400024F400CB
:1041B00000127A00F8B504460CB90120F8BD207849
:1041C00000F00100002874D0F948006800F00C00ED
:1041D00004280DD0F648006800F00C00082813D120
:1041E000F348001F006800F48000B0F5800F0BD189
:1041F000EF4808380068C0F34040002859D0606894
:10420000002856D10120D9E700BF6068B0F5803F93
:1042100008D1E7480838006840F48030E44908399C
:1042200008601EE06068B0F5A02F0DD1E0480838A6
:10423000006840F48020DE490839086008460068BC
:1042400040F4803008600CE0D9480838006820F459
:104250008030D749083908600846006820F480207B
:10426000086000BF606890B1FFF7DEFA054606E01F
:10427000FFF7DAFA401B642801D903209EE7CC48F7
:1042800008380068C0F340400028F1D011E0FFF783
:10429000CBFA054606E0FFF7C7FA401B642801D9B0
:1042A00003208BE7C24808380068C0F3404000286C
:1042B000F1D1207800F0020002285FD1BC480068EC
:1042C00000F00C0058B1BA48006800F00C00082853
:1042D0001CD1B748001F006800F48000B0B9B44892
:1042E00008380068C0F3400020B1E068012801D020
:1042F000012063E7AE480838006820F0F800216923
:1043000040EAC100AA490839086037E0E06800B314
:104310000120A8490860FFF787FA054606E0FFF785
:1043200083FA401B022801D9032047E7A048083838
:104330000068C0F340000028F1D09D4808380068AC
:1043400020F0F800216940EAC10099490839086065
:1043500014E0002097490860FFF766FA054606E07A
:10436000FFF762FA401B022801D9032026E7904894
:1043700008380068C0F340000028F1D1207800F030
:10438000080008282CD16069A8B101208A4908607A
:10439000FFF74AFA054606E0FFF746FA401B0228F7
:1043A00001D903200AE782486C300068C0F340005E
:1043B0000028F1D014E000207F490860FFF734FAAC
:1043C000054606E0FFF730FA401B022801D903201A
:1043D000F4E677486C300068C0F340000028F1D163
:1043E000207800F0040004286FD10026704838308F
:1043F000006800F0805088B900BF002000906C4831
:104400003830006840F0805069493831086008460B
:10441000006800F08050009000BF012667480068E7
:1044200000F48070B0B96548006840F4807063495A
:104430000860FFF7F9F9054606E0FFF7F5F9401BBC
:10444000022801D90320B9E65C48006800F48070B6
:104450000028F2D000BFA068012808D15448683075
:10446000006840F001005249683108601DE0A06812
:1044700005280DD14E486830006840F004004C49D2
:10448000683108600846006840F0010008600CE0F0
:1044900047486830006820F00100454968310860ED
:1044A0000846006820F00400086000BFA068A8B1BA
:1044B000FFF7BAF9054609E0FFF7B6F9401B41F2EC
:1044C0008831884202D9032078E626E038486830EF
:1044D0000068C0F340000028EED013E0FFF7A4F915
:1044E000054608E0FFF7A0F9401B41F288318842F9
:1044F00001D9032062E62E4868300068C0F340000E
:104500000028EFD1012E07D129483830006820F06B
:10451000805027493831086000BFA069B8B32448EB
:10452000006800F00C0008285FD0A069022847D17D
:10453000002020490866FFF777F9054606E0FFF7F7
:1045400073F9401B022801D9032037E618480838C0
:104550000068C0F340600028F1D1D4E907010843A6
:10456000616A40EA81110122A06AC2EB500041EA6F
:1045700000412C20005D41EA00600D49091F0860E0
:1045800001200C490866FFF74FF9054607E02EE0C9
:10459000FFF74AF9401B022801D903200EE6044820
:1045A00008380068C0F340600028F1D01FE0000028
:1045B0000838024000004742800E47420070004029
:1045C00000200C490866FFF72FF9054606E0FFF7C3
:1045D0002BF9401B022801D90320EFE506480068AB
:1045E000C0F340600028F2D101E00120E6E50020A0
:1045F000E4E50000000047420038024010B50446E0
:104600000CB9012010BD606A00B900BFA06AB0F506
:10461000005F00D100BF94F8510028B9002084F851
:104620005000204600F03AF8022084F8510020683B
:10463000006820F0400021680860D4E901010843C7
:10464000E16808432169084361690843218B01F44B
:1046500000710843E1690843216A0843A16A0843DD
:10466000216808600421A06901EA1040616A0843DA
:1046700021684860A06AB0F5005F02D12168E06A55
:1046800008612068C06920F400602168C8610020CA
:104690006065012084F851000020B3E770472DE9E0
:1046A000FC4704460D4617461E46002001908046F2
:1046B00081466068B0F5827F0DD1A06858B90420AA
:1046C00084F851003B462A4629462046009600F0D1
:1046D000E6F9BDE8FC8700BF94F85000012801D13D
:1046E0000220F6E7012084F8500000BFFFF79CF895
:1046F000804694F85100012802D04FF00209D5E01D
:1047000005B117B94FF00109D0E0042084F8510039
:1047100000206065A563A787E7872063A086E08601
:1047200020646064A06AB0F5005F11D100BF20680A
:1047300000684DF6FF710840216808602068006835
:1047400040F400502168086000BFE08F401EE08701
:10475000A068B0F5004F05D12068006820F48040C3
:10476000216808602068006800F04000402805D0FB
:104770002068006840F0400021680860E068E8B9FF
:1047800018E02068806800F0010038B12068007BE4
:1047900028706D1CE08F401EE0870BE03EB1701C5E
:1047A00040B1FFF741F8A0EB0800B04202D34FF050
:1047B00003097BE0E08F0028E3D11CE018E02068CB
:1047C000806800F0010038B12068C0682880AD1C06
:1047D000E08F401EE0870BE03EB1701C40B1FFF758
:1047E00023F8A0EB0800B04202D34FF003095DE0CC
:1047F000E08F0028E3D1A06AB0F5005F31D12068D6
:10480000006840F480502168086033460122114658
:104810002046CDF8008002F0A5FF10B14FF003094B
:1048200044E0E068B0F5006F03D12068C0682880DC
:1048300002E02068007B28703346012211462046A2
:10484000CDF8008002F08EFF30B1606D40F00200C4
:1048500060654FF0030929E02068C06880B20190CC
:1048600000BF6068B0F5827F0DD1A068B0F5004F41
:1048700003D0A068B0F5806F05D12068006820F0F3
:104880004000216808602068806800F0100010284F
:1048900007D1606D40F0020060654FF6EF7021684F
:1048A0008860606D08B14FF0010900BF012084F8F5
:1048B000510000BF002084F8500000BF484608E7C0
:1048C0002DE9F84304460D4617461E464FF00008F2
:1048D000C14600BF94F85000012802D10220BDE873
:1048E000F883012084F8500000BFFEF79DFF80464A
:1048F00094F85100012802D04FF00209C5E005B13B
:1049000017B94FF00109C0E0032084F851000020DE
:1049100060652563A786E786A063A087E08760645B
:104920002064A068B0F5004F05D12068006840F40D
:10493000804021680860A06AB0F5005F0ED100BF1A
:10494000206800684DF6FF71084021680860206803
:10495000006840F400502168086000BF20680068CB
:1049600000F04000402805D02068006840F040007A
:1049700021680860E068B0F5006F2AD1606810B166
:10498000E08E012806D128882168C860AD1CE08E21
:10499000401EE08619E02068806800F002000228CE
:1049A00007D128882168C860AD1CE08E401EE086D3
:1049B0000BE03EB1701C40B1FEF736FFA0EB0800E3
:1049C000B04202D34FF003095FE0E08E0028E2D14D
:1049D00029E0606810B1E08E012806D128782168AE
:1049E00008736D1CE08E401EE08619E02068806828
:1049F00000F00200022807D12878216808736D1C96
:104A0000E08E401EE0860BE03EB1701C40B1FEF728
:104A10000BFFA0EB0800B04202D34FF0030934E0D3
:104A2000E08E0028E2D13346012202212046CDF853
:104A3000008002F097FE10B14FF0030925E04246D6
:104A40003146204602F0A6F820B14FF0010920209F
:104A500060651AE0A06848B900BF00200090206897
:104A6000C068009020688068009000BFA06AB0F520
:104A7000005F05D12068006840F48050216808601C
:104A8000606D08B14FF0010900BF012084F85100AA
:104A900000BF002084F8500000BF48461FE72DE902
:104AA000FF5F04460D4616461F46DDF838804FF07E
:104AB000000A00200390029081464FF0010B019004
:104AC00000BF94F85000012803D1022004B0BDE8D3
:104AD000F09F012084F8500000BFFEF7A5FE81463C
:104AE00094F851A060680390BAF1010F0BD00398BD
:104AF000B0F5827F04D1A06810B9BAF1040F02D0DA
:104B00000220019025E10DB106B117B901200190F5
:104B10001FE194F85100012802D1052084F85100CA
:104B200000206065A663E787A7872563E786A786D9
:104B300020646064A06AB0F5005F0ED100BF2068F9
:104B400000684DF6FF710840216808602068006821
:104B500040F400502168086000BF2068006800F041
:104B60004000402805D02068006840F040002168DF
:104B70000860E068B0F5006F4FD1606810B1E08E5A
:104B8000012806D128882168C860AD1CE08E401E2F
:104B9000E0863BE0BBF1000F1CD0E08ED0B1206876
:104BA000806800F00200022814D128882168C860BB
:104BB000AD1CE08E401EE0864FF0000BE08E48B941
:104BC000A06AB0F5005F05D12068006840F480500D
:104BD00021680860E08F68B12068806800F00100FB
:104BE00040B12068C0683080B61CE08F401EE0876E
:104BF0004FF0010B08F1010040B1FEF715FEA0EBEC
:104C00000900404502D303200190A2E0E08E002875
:104C1000C0D1E08F0028BDD14EE0606810B1E08EB9
:104C2000012806D12878216808736D1CE08E401E8B
:104C3000E0863BE0BBF1000F1CD0E08ED0B12068D5
:104C4000806800F00200022814D115F8010B2168D9
:104C50000873E08E401EE0864FF0000BE08E48B9EE
:104C6000A06AB0F5005F05D12068006840F480506C
:104C700021680860E08F68B12068806800F001005A
:104C800040B12068C06806F8010BE08F401EE08745
:104C90004FF0010B08F1010040B1FEF7C5FDA0EB9C
:104CA0000900404502D30320019052E0E08E002825
:104CB000C0D1E08F0028BDD1A06AB0F5005F14D14B
:104CC0004346012211462046CDF8009002F04AFDED
:104CD00030B1606D40F0020060650320019038E063
:104CE0002068C06880B2029000BF2068806800F031
:104CF0001000102809D1606D40F0020060654FF689
:104D0000EF70216888600120019043460122022152
:104D10002046CDF8009002F025FD10B1032001904F
:104D200017E04A464146204601F034FF20B10120F9
:104D30000190202060650CE0A06848B900BF002009
:104D400000902068C068009020688068009000BFD4
:104D500000BF012084F8510000BF002084F85000FB
:104D600000BF0198B2E670B504460E4615460CB970
:104D7000012070BD94F8490028B9002084F848004B
:104D8000204600F01CF804F108012068FEF762F9E3
:104D90003146A2682068FEF797F92946236BD4E9CB
:104DA0000102FEF733F9A168206850F8210040F0B5
:104DB0000100A268216841F822000020D9E770476D
:104DC000042808D14FF0E021096941F004014FF0B7
:104DD000E022116107E04FF0E021096921F00401B0
:104DE0004FF0E02211617047704770B504462546C8
:104DF000681EB0F1807F01D301200FE0681E4FF0E4
:104E0000E02148610F214FF0FF3001F035FE002016
:104E10004FF0E021886107200861002070BD10B5C7
:104E2000FFF7E2FF10BD10B50446022084F83900F8
:104E300000BF2068006A41F21111084050B9206893
:104E4000006A8910084028B92068006820F0010035
:104E50002168086000BF204600F022F8002084F896
:104E6000390000BF84F8380000BF10BD10B50446FB
:104E70000CB9012010BD94F8390028B9002084F83D
:104E80003800204600F00DF8022084F83900211D7A
:104E9000206800F093F9012084F839000020E9E748
:104EA000704770470146022081F8390008680068A1
:104EB00040F001000A681060012081F839000020EC
:104EC000704701460868C06840F001000A68D06079
:104ED0000868006840F001000A6810600020704710
:104EE00001460868C06820F001000A68D06000BF71
:104EF0000868006A41F21112104050B90868006A4F
:104F00009210104028B90868006820F001000A6873
:104F1000106000BF0020704713E00A4A0AA1002079
:104F200006F0E2FD0B4803680B480CA10268002064
:104F300006F0DAFD0B480EF085F90BF02DF80BF0BA
:104F40001DFEEAE7B9810308257320656E7465725A
:104F50000000000088A2022060A202202573203AEF
:104F600020256400E60000200A4A0BA1002006F07C
:104F7000BBFD0C4803680C480CA10268002006F039
:104F8000B3FD0C480EF05EF90BF006F80BF0F6FDE1
:104F900000BFFEE794810308257320656E74657277
:104FA0000000000088A2022060A202202573203A9F
:104FB00020256400E600002010B50A4A0AA100205E
:104FC00006F092FD0B4803680B480CA10268002014
:104FD00006F08AFD0B480EF035F90AF0DDFF0BF004
:104FE000CDFD10BDEB810308257320656E746572DD
:104FF0000000000088A2022060A202202573203A4F
:1050000020256400E600002010B50A4A0AA100200D
:1050100006F06AFD0B4803680B480CA102680020EB
:1050200006F062FD0B480EF00DF90AF0B5FF0BF02B
:10503000A5FD10BDDC810308257320656E746572C3
:105040000000000088A2022060A202202573203AFE
:1050500020256400E600002010B50A4A0AA10020BD
:1050600006F042FD0B4803680B480CA102680020C3
:1050700006F03AFD0B480EF0E5F80AF08DFF0BF054
:105080007DFD10BDF7810308257320656E74657280
:105090000000000088A2022060A202202573203AAE
:1050A00020256400E600002010B5FEF7C3FBFFF7E3
:1050B000B6FE10BD1348006840F470001149086046
:1050C0001148006840F001000F49086000200E49B7
:1050D000083108600C4800680C4908400A4908601B
:1050E0000B48091D0860081F006820F48020091F74
:1050F0000860002004490C310860064801498039E5
:105100000860704788ED00E000380240FFFFF6FEBF
:10511000103000240000020810B50948006800F0B3
:10512000010058B10648001F006800F0010028B1D6
:105130006FF001000249086008F020FE10BD000079
:105140001004004010B50948006800F0010058B193
:105150000648001F006800F0010028B16FF0010050
:10516000024908600BF0FCFF10BD00001008004071
:1051700010B51048006800F00100D0B10D48001FC4
:10518000006800F00100A0B16FF00100094908605B
:1051900020210948FEF73AFB012805D100222021F1
:1051A0000548FEF73BFB04E0012220210248FEF700
:1051B00035FB10BD101400400000024000220268C0
:1051C0002C4B98420ED0B0F1804F0BD02A4B984216
:1051D00008D02A4B984205D0294B984202D0294B3F
:1051E000984201D1012300E000231BB122F070029C
:1051F0004B681A431F4B984220D0B0F1804F1DD00E
:105200001D4B98421AD01D4B984217D01C4B984208
:1052100014D01C4B984211D01B4B98420ED01B4B04
:1052200098420BD01A4B984208D01A4B984205D09E
:10523000194B984202D0194B984201D1012300E04A
:1052400000231BB122F44072CB681A4302608B68C2
:10525000C3620B688362074B984202D0094B9842A5
:1052600001D1012300E000230BB10B69036301238B
:105270004361704700000140000400400008004006
:10528000000C004000040140004001400044014087
:105290000048014000180040001C00400020004071
:1052A0000A4A0BA1002006F01FFC0C4803680C48BA
:1052B0000CA10268002006F017FC0C480DF0C2FF9C
:1052C0000AF06AFE0BF05AFC00BFFEE7A681030855
:1052D000257320656E7465720000000088A20220AC
:1052E00060A202202573203A20256400E6000020F9
:1052F0002DE9F04F2DED028B81B006460D46174685
:10530000B0EE408A01242CE03019A0F10108601EA3
:10531000385C00EE100AF8EE400A00EE105AB8EEC3
:10532000C00A00EEC80ABDEEC00A10EE109A06EBE5
:10533000040A385D00EE100AF8EE400A00EE105A3A
:10534000B8EEC00A00EEC80ABDEEC00A10EE10BAF0
:1053500007485B46524649460090404603F019FE16
:10536000641CF02CD0DB01B0BDEC028BBDE8F08FEB
:10537000E00000202DE9FF4104460D46134890F857
:10538000AF0008B912A000E014A0014603A80AF07B
:1053900035FB074613481E2146232A46CDE9001057
:1053A000214638460EF064FF064603A80AF09CFB2F
:1053B000AE2102A806F086FC06460A4B05F11C0247
:1053C00004F1190106F0A8FBBDE8FF81E47F02208B
:1053D000CFF0E8ECE5EDE8F2FC0000004170706C05
:1053E00079000000E000002010B588B000241CE027
:1053F0001048005D2E2817D1002004E00D49095CFB
:1054000002AA1154401CA042F8D3002002A908555A
:1054100000900190694602A806F026F918B1DDE96E
:10542000000108B010BD02E0641C0F2CE0D3002086
:105430000146F6E7D47E022010B50446032120463B
:1054400008F034F910BD000038B505461FA1284604
:1054500008F0C3FA0090009890B1684608F04EF842
:1054600060B108F073F81A480DF0AEFB194951F815
:105470002040204607F0F2FF009838BD0020FCE7EE
:10548000002416E0134850F82410284608F0A5FA26
:105490000090009860B1684608F030F830B108F02C
:1054A00055F8204602F0CAFF0098E6E70020E4E73E
:1054B000641C084850F824000078A04201DD012057
:1054C00000E000200028DDD100BFD6E73F0000004B
:1054D0009280022044DE030810B5044601212046D4
:1054E00008F0E4F810BD2DE9FF4707460D461446C5
:1054F0001E4625602878302802DB2878392803DD0D
:10550000002004B0BDE8F08701A80AF0DFFA4FF0F0
:10551000000818E0206800782E2803D02068007862
:105520002C2802D14FF0010803E0B8F1000F00D0A1
:10553000761E002E04DB2068017801A80AF042FAEA
:105540002068401C206020680078302803DB206839
:1055500000783928DEDD206800782E28DAD020682F
:1055600000782C28D6D001A80EF003FF8146022235
:10557000494602A809F05CF803C8C7E9000101A880
:105580000AF0B2FA0120BCE77047000010B50446EB
:105590000249204607F082FF10BD000044DE0308E8
:1055A0007047000030B58DB004460D4618480460C1
:1055B00018480560002000904FF4A0700190002072
:1055C0000290F020039005200490FF2005900690A3
:1055D0004FF480600790052008900D4800680990FE
:1055E0004FF4A0700A90F0200B9000208DF830004E
:1055F00000218DF831108DF83210002269460648DE
:10560000FEF7C2F908B106F059F90DB030BD00003F
:105610003C000020400000207C1800200146142996
:1056200002D10548007800E00846014601EB410040
:10563000024A52F830007047100E0020180E002069
:105640000146142902D10648007800E008460146C8
:1056500001EB4100034A02EBC000007970470000F3
:10566000100E0020180E00202DE9FF4104460D46C3
:10567000134890F8AF0008B912A000E014A001464A
:1056800003A80AF0BBF9074613481E2146232A4601
:10569000CDE90010214638460EF0EAFD064603A883
:1056A0000AF022FAA62102A806F00CFB06460A4BD5
:1056B00005F11C0204F1190106F02EFABDE8FF8184
:1056C000E47F0220CEF2ECE5EDE8F2FC0000000001
:1056D00043616E63656C0000E000002010B586B089
:1056E0000446204602F0F6FD401C08B906B010BD85
:1056F000F3200C490860FDF763FF0020019020466D
:1057000002F0E8FD039001200490022005900020A3
:105710000090694601A8FDF7A5FEFDF7FBFE00BF5E
:10572000E4E700000C3C02407CB5054623A1284676
:1057300008F053F90190019888B101A807F0DEFE46
:1057400058B107F003FF1E4801781E4850F8214069
:10575000204607F083FE01987CBD0020FCE7002472
:105760001FE0184850F82410284608F036F9019038
:105770000198A8B101A807F0C1FE78B107F0E6FED4
:105780006846104A52F824205278413AD1B201704A
:1057900000BF064604F00EF90198DDE70020DBE7C4
:1057A000641C084850F824000078A04201DD012064
:1057B00000E000200028D4D100BFCDE73F0000006A
:1057C0009280022014DE030838B5054600241BE051
:1057D0000F4850F82410284608F0FFF80090009871
:1057E00088B1684607F08AFE58B107F0AFFEE0B214
:1057F00000210BF041FDE0B201210BF03DFD0098CE
:1058000038BD0020FCE7641C192CE1DB0020F7E721
:1058100048E0030838B505461CA1284608F0DDF825
:105820000090009888B1684607F068FE58B107F00C
:105830008DFE174991F8B510164A52F8210007F06D
:105840000DFE009838BD0020FCE7002419E0114847
:1058500050F82410284608F0C0F80090009878B15D
:10586000684607F04BFE48B107F070FE084880F824
:10587000B540012005F094FD0098E3E70020E1E742
:10588000641C032CE3DB0020DCE700003F00000089
:10589000E47F0220B0DC030810B50446024920462C
:1058A00007F0FCFD10BD000014DE03087047000087
:1058B0004FF0FF3100200AE0074A02EB0012926825
:1058C0008A4203D2044A02EB00129168401C02286B
:1058D000F2D308467047000020180020F8B50446AF
:1058E0000D46AE21684606F0EDF90646034B05F17C
:1058F0001E0204F10F0106F00FF9F8BDE6000020CA
:105900007FB5044674B1084890F8C23000220521E2
:1059100068460BF07CF8054604F0DCFD68460BF0A9
:1059200091F800BF7FBD0000E47F02207FB50446F0
:1059300074B1084890F8C3300522114668460BF050
:1059400066F8054604F0C6FD68460BF07BF800BF1C
:105950007FBD0000E47F022001B509480078FFF711
:105960006FFE58B968460EF04EFD38B19DF8000044
:1059700004F082F900F0F0F9012008BD0020FCE7F6
:10598000100E00207CB504460D463BE000BF606869
:1059900008B1012000E00020B8B1294668460AF0AD
:1059A00071F86846216809F0ABFF694601A80AF062
:1059B00069F8064631466068FFF7E4FF01A80AF07F
:1059C00093F868460AF090F81BE000BFA06808B1A1
:1059D000012000E00020A0B1294601A80AF052F8F9
:1059E00001A8216809F08CFFE06807F037FD01A8E5
:1059F0002169884708A007F031FD01A80AF074F872
:105A000000BF143400BF2068007808B9012000E00E
:105A100000200028BAD07CBD0000000070B504460C
:105A20000E46207808B9002070BD2046B16888472E
:105A300005460DB12846F7E72178024809F0C2FF74
:105A4000601CF1E73014002070B505460C4628466E
:105A5000616802F0ABF870BD03782B2B05D10123F0
:105A600013600B685B1C0B6008E003782D2B05D1DD
:105A70004FF0FF3313600B685B1C0B607047000036
:105A80001CB5002412E00C48005D2E280DD1002129
:105A900000910191084A611C5018694605F0E4FD27
:105AA00010B1DDE900011CBD02E0641C0F2CEAD33B
:105AB00000200146F7E70000D47E022010B586B032
:105AC00000F06EFC08B906B010BD2D4800782D49D5
:105AD0000978884220D12C4800782C4909788842DE
